:020000040800F2
:10000000402F002045020008CF3D00084937000876
:100010008D3D00080F15000823490008000000006E
:10002000000000000000000000000000CD430008B8
:100030001115000800000000D13D000835440008FB
:100040005F0200085F0200085F02000831400008FC
:100050005F0200085F0200085F0200085F020008FC
:100060005F0200085F0200085F0200085F020008EC
:100070005F0200085F0200085F0200085F020008DC
:100080005F0200085F0200085F0200085F020008CC
:100090005F0200085F0200085F0200085F020008BC
:1000A0005F0200085F0200085F0200085F020008AC
:1000B0005F02000800000000000000005F0200086E
:1000C0005F0200085F0200085F0200085F0200088C
:1000D0005F0200085F0200085F0200085F0200087C
:1000E0005F0200085F02000800000000000000003E
:1000F0000000000000000000000000000000000000
:10010000000000005F020008000000005F0200081D
:1001100000000000000000005F0200085F0200080D
:100120005F0200085F0200085F0200085F0200082B
:100130005F02000800000000000000000000000056
:100140005F0200085F0200085F0200080000000074
:100150005F0200085F0200085F0200085F020008FB
:100160005F0200085F0200085F0200080000000054
:100170005F0200085F0200080000000000000000AD
:100180005F0200085F0200085F02000800F002F84A
:1001900000F049F80AA090E8000C82448344AAF1D8
:1001A0000107DA4501D100F03EF8AFF2090EBAE8D6
:1001B0000F0013F0010F18BFFB1A43F0010318479B
:1001C0002455000044550000103A24BF78C878C177
:1001D000FAD8520724BF30C830C144BF04680C604D
:1001E000704700000023002400250026103A28BF95
:1001F00078C1FBD8520728BF30C148BF0B60704799
:10020000662905F0F681002070471FB505F0E7F973
:1002100000F040FC04000020002104F083FEE060B8
:100220001FBD10B510BD00F035FD1146FFF7EDFF05
:1002300004F0DEFD00F053FD03B4FFF7F2FF03BC52
:1002400000F096FD0948804709480047FEE7FEE7B1
:10025000FEE7FEE7FEE7FEE7FEE7FEE7FEE7FEE776
:1002600004480549054A064B70470000BD44000894
:100270008D010008400F0020402F0020401F00206B
:10028000401F002053EA020C00F069802DE9F04B7A
:100290004FF00006002B1FBFB3FA83F503FA05F4F5
:1002A00024FA05F65E4012BF1643B2FA82F502FA4E
:1002B00005F4C5F120051EBF22FA05FC44EA0C0432
:1002C000203556EA044C4FEA144418BF641C4FF022
:1002D00000084FF00009904271EB030C39D300295C
:1002E00019BFB1FA81F701FA07F6B0FA80F700FA00
:1002F00007F6C7F120071EBF20FA07FC46EA0C06E6
:100300002037B6FBF4FCA7EB0507103F07F01F0BE7
:10031000CBF120060CFA0BFB2CFA06F644BFB346D1
:100320000026202FA4BF5E464FF0000B5BEA060CB0
:1003300008BF4FF0010B19EB0B09ABFB027C48EB3C
:100340000608C01B06FB02CC0BFB03CC71EB0C01B7
:10035000C1E70B46024641464846BDE8F08B13B55F
:100360004FF000004FF00001AFF30080BDE81C40EB
:10037000704700000FB41CB5074B06AA7B446946C2
:100380000090059800F03BFB0020694600F04AFB16
:100390001CBC5DF814FB0000A50600002DE9F04729
:1003A0004FF0000A89460446C0F820A02046E168C4
:1003B0008847002876D0252806D0D4E90121904727
:1003C000206A401C2062F1E7E1682046002588474A
:1003D000C4F81CA006460027C4F818A02A2E09D08D
:1003E000304604F0F1FC38B304EB8708303EC8F81F
:1003F000186019E059F8041B204604EB870291614C
:10040000E1688847012F064618D1E069002820DA04
:1004100025F020051DE0D8F8180000EB800006EB61
:1004200040003038C8F818002046E1688847064682
:1004300004F0CAFC0028EED1012F0AD02E2E08D1DC
:100440002046E16888477F1C0646022F45F02005BC
:10045000C4DBA069002803DA404245F00105A06131
:10046000E80701D025F01005B6B1A6F14100192822
:1004700002D8203645F400654A46314620462560BC
:100480004D46FFF7BDFE58B1012806D0ED1D25F001
:10049000070000F1080989E704E005F1040985E790
:1004A00030468AE7206ABDE8F08740EA0103024649
:1004B00030B59B0710D14FF0013400E008C208C9E5
:1004C0001D1B9D4315EAC41FF8D013F0FF0102F86D
:1004D000011B0DD01B0AF8E711F8013B002B02F8B5
:1004E000013B05D011F8013B002B02F8013BF3D191
:1004F00030BD032A40F2308010F0030C00F015806C
:1005000011F8013BBCF1020F624498BF11F801CB16
:1005100000F8013B38BF11F8013BA2F1040298BF7B
:1005200000F801CB38BF00F8013B11F0030300F0E5
:100530007E82083AC0F0088051F8043B083A51F82E
:1005400004CBA0E80810F5E7121D5CBF51F8043B8E
:1005500040F8043BAFF30080D20724BF11F8013B01
:1005600011F801CB48BF11F8012B24BF00F8013B63
:1005700000F801CB48BF00F8012B70474FF0000294
:1005800000B5134694469646203922BFA0E80C5089
:10059000A0E80C50B1F12001BFF4F7AF090728BF64
:1005A000A0E80C5048BF0CC05DF804EB890028BFE0
:1005B00040F8042B08BF704748BF20F8022B11F009
:1005C000804F18BF00F8012B704770477047704785
:1005D00070472DE9FF4F0C461E464FF0FF378BB09A
:1005E000D2E90001DDF860800A908A46C1F30A551D
:1005F00005B93D46002108464FF00000BAF1000F52
:1006000000F4400005DA00EB80004FF4400101EAFD
:1006100050004FEA9059B9F1010F00DDB9460A9830
:1006200050EA4A000ED044F61050A5F2FF3545437B
:100630002F14B8F1000F1ED07542291E1EDDC9F11E
:1006400000021CE0B8F1010F4FF0000001D0302192
:1006500003E0F24305E02154401CB042FBDB30468E
:100660000022002121540B99C1F80880C1E9002023
:100670000FB000F0BCB9BD1B6D1CDEE74A4600DAC6
:10068000694206A800F090FA06AB93E8070003ABB6
:1006900083E8070050460A9900F071FB8DE80700D7
:1006A000A0F500501F3800900398002D0ADD42F29B
:1006B0001F014A460844002303A90390684600F03E
:1006C000DAFD09E0A0F500504A461F38002303A9CF
:1006D0000390684600F0E4FD8DE807000004000C7C
:1006E00003D04FF0FF30410800E01046B8F1000F92
:1006F00003D00022009215461EE0751E05D400F0BE
:10070000CDF9303262556D1EF9D5B346012208434A
:1007100002D000227F1C04E02078302801D1002282
:100720007F1E002A099784D01DE0112D07DA00F002
:10073000B5F9303262556D1C50EA0102F5D108431B
:1007400002D00098C8B10EE00021681E05E0235CCD
:10075000625C63542254401E491C8142F7DBAB4665
:10076000A81B401E0990002004F80B000B98099A62
:10077000C0F80880C0E9002B7AE711264FF0000886
:1007800057E72DE9F04F88460446D21D22F00701B5
:1007900091B0D1E90001CDE90A0104F05BFA02460B
:1007A0000B98C00F01D02D2007E02068810701D5EC
:1007B0002B2002E0202101EAC000032A099001D089
:1007C000072A05DB03464146204600F0ADF90BE160
:1007D0002078800601D5E06900E00620B8F1650FB9
:1007E000814606D0B8F1660F18D0B8F1670F70D106
:1007F00031E00020B9F1110F009001DB112301E07D
:1008000009F101030AAA01A90CA8FFF7E2FEDDE93C
:100810000C70002609F10105834647E001204B4694
:1008200000904FF000470AAA01A90CA8FFF7D1FEDB
:10083000DDE90DB00C995D46002610B909F1010003
:100840000D18B9EB050003D4C0F1FF3609F101051D
:10085000A5EB09002BE0B9F1010F01DA4FF0010916
:100860000020B9F1110F0090484601DD112300E08E
:1008700003460AAA01A90CA8FFF7ABFEDDE90C703C
:100880004D4600268346207800070AD4AB4500DA9F
:100890005D4601A8012D04DD411911F8011C302924
:1008A00007D04F4502DA17F1040F04DA012082461F
:1008B0000FE06D1EEEE7002F02DCED1B3E4403E06F
:1008C000781CA84200DD7D1CB81B00F1010A4FF026
:1008D00000472078000703D4AA4501DB4FF0FF3A18
:1008E0000021B7F1004F0DF143088DF8431024D0DB
:1008F00002202B23002F01DA7F422D230A21021E22
:10090000A0F1010000DC5FB197FBF1FC97FBF1F275
:1009100001FB1C7C17460CF1300C08F801CDEEE70A
:10092000A8F1010003702188090501D5452100E0E7
:100930006521A0F1010800F8011C09980FA9A1EB9D
:100940000807FF1D00B10120411901EBEA70A16900
:100950003844081A401EA0612078C00602D4204600
:10096000AFF30080099828B1D4E901219047206AAB
:10097000401C20622078C00622D52046AFF30080BC
:100980001EE0002E04DBB34502DD01A8805D00E01F
:100990003020D4E901219047206A401C2062761C57
:1009A000AAF101005FEA000A0AD100F073F8C068FA
:1009B0000168405CD4E901219047206A401C206214
:1009C000281EA5F10105DCDC07E0D4E9012118F8B7
:1009D000010B9047206A401C2062381EA7F10107D6
:1009E000F3DC2046AFF30080032011B041E630BCB9
:1009F000BDE8C08F01694A1C02610878704700B5E4
:100A00008FB0CDE901310021059105497944CDE947
:100A1000031011466846FFF7C1FC0FB000BD00008F
:100A2000E5FFFFFF0A6802F8010B0A60704710B586
:100A3000203AC0F00B80B1E81850203AA0E81850D6
:100A4000B1E81850A0E81850BFF4F5AF5FEA027C97
:100A500024BFB1E81850A0E8185044BF18C918C006
:100A6000BDE810405FEA827C24BF51F8043B40F8A7
:100A7000043B08BF7047D20728BF31F8023B48BF8C
:100A800011F8012B28BF20F8023B48BF00F8012BCA
:100A90007047000000487047000F002030B5B0F1EB
:100AA0000A024FEA900E71F100034EEA817EB0EB2C
:100AB0000E0061EB91014FEA101E4EEA017E10EB31
:100AC0000E0041EB11114FEA102E4EEA016E10EBB1
:100AD0000E0041EB11214FEA104E4EEA014E10EB91
:100AE0000E0041EB1141401841F100014FEAD000E6
:100AF00040EA41704FEAD10110EB80054FEA8104D2
:100B000044EA907444EB01046D1944EB0404521B55
:100B1000A3414FF0000348BF0A3200D530BD401C4E
:100B200041F1000130BD00002DE9F0411F460446AF
:100B300003260168072A01F4006004DB08B116A54A
:100B400005E016A503E008B115A500E015A521F004
:100B500010002060A069C01EA0610FB1401EA061FE
:100B60002046AFF300804FB1D4E9012138469047C9
:100B7000206A401C2062C01C206206E0206AFAE75E
:100B8000D4E9012115F8010B9047761EF8D22046D2
:100B9000AFF30080BDE8F0814E414E006E616E0003
:100BA000494E4600696E66002DE9F04781461646BB
:100BB0008AB0354878440DC88DE80D003248784435
:100BC000801C03AC0DC884E80D0041F69B3008443E
:100BD000372190FBF1F290FBF1F5A5F1800501FBC7
:100BE00012041B3C02D56442012000E00020DFF823
:100BF00098A080460027FA44AAF1BE0A0EE0E0075A
:100C00000AD03246684607EB470101230AEB81010F
:100C100000F046FB8DE8070064107F1C002CEED12D
:100C2000194F7F44AE3F19E0E80715D007EB0410D9
:100C30000DF1180A90E80E008AE80E00C068F04234
:100C400001D1981908903246012306A903A800F0A3
:100C500027FB03AB83E807006D10641C002DE3D174
:100C60004FF0010332466946B8F1000F03A802D0E5
:100C700000F001FB01E000F013FBC9E90001C9F835
:100C800008200AB0BDE8F087144B00000048704708
:100C9000E00E00207546FFF7F9FFAE4605006946F5
:100CA000534620F00700854618B020B5FFF7D8FA64
:100CB000BDE820404FF000064FF000074FF000085D
:100CC0004FF0000B21F00701AC46ACE8C009ACE8DE
:100CD000C009ACE8C009ACE8C0098D46704710B542
:100CE0000446AFF300802046BDE81040FFF7A4BAE9
:100CF0004FF0013C50F8042B51F8043B9A4221D1AB
:100D0000A2EB0C03934313EACC1317D150F8042B36
:100D100051F8043B9A4215D1A2EB0C03934313EA1A
:100D2000CC130BD150F8042B51F8043B9A4209D153
:100D3000A2EB0C03934313EACC13DBD04FF000007B
:100D4000704700BFD01A01BAB1FA81F101F0180161
:100D500022FA01F0CB40C1F12001DBB2C0B2C01ACF
:100D60002CFA01F3D11A914311EAC311E6D170476D
:100D700001491820ABBEFEE72600020070475FEA7B
:100D8000400C08BF91F0000F4FEA8C234FEAC122BC
:100D900043EA51514FEA1C5018BF00F5F0404FEAAA
:100DA000300018BF41F000415FEA6C5C00F0298020
:100DB000BCF1FF3F08BF40F080407047130C06BFF6
:100DC00012044FF0100C4FF0000C130E04BF12026F
:100DD0000CF1080C130F04BF12010CF1040C930F5B
:100DE00004BF92000CF1020CD30F04BF52000CF1AF
:100DF000010C11464FF00002A0F11F00A0EB0C0007
:100E0000704711F0004F08BF704731F000413FF4C8
:100E1000D5AF0B0C06BF09044FF0100C4FF0000CBF
:100E20000B0E04BF09020CF1080C0B0F04BF0901E3
:100E30000CF1040C8B0F04BF89000CF1020CCB0FDA
:100E400004BF49000CF1010CCCF12003A0EB0C0015
:100E500022FA03F302FA0CF241EA030100F1010065
:100E6000704720F07F4C80EA030023F07F47ACEB13
:100E7000070303F57C5300F0004003F1FF032DE965
:100E800080494FEA154B09B44FEA144325EA0B4E4B
:100E900024EA03480FF2042606EB132749083E789C
:100EA0005FEA320203FB0667C7F5000707FB06F699
:100EB0004FEA54374FEAD64606F1020607FB066CA6
:100EC000CCF1005C4FEA1C472CEA074C07FB06F408
:100ED0000CFB06F504EB15464FEA961634BF0020CE
:100EE0004FF000404FEAD13706FB07FC4FEA1C4C9D
:100EF0000CFB0BF7D21B03FB0CF761EB07010CFBA0
:100F00000EF7B0EB074072EB17420CFB08F734BF4B
:100F1000A2EB0742B2EB074261EB17414FEA0C44E8
:100F20004FEA910706FB07FC4FEA1C4C0CFB0BF742
:100F3000B0EBC74072EB573203FB0CF734BFA2EBA8
:100F4000C742B2EBC74261EB57310CFB0EF7B0EB77
:100F5000C70072EB57720CFB08F734BFA2EBC70255
:100F6000B2EBC70261EB5771039F4FEA816141EA1F
:100F7000921104EBCC044FEAD1374FEA826206FBB0
:100F800007FC42EA90124FEA80604FEA1C4C0CFBCF
:100F90000BF7D21B03FB0CF761EB07010CFB0EF701
:100FA000B0EB074072EB17420CFB08F734BFA2EB23
:100FB0000742B2EB074261EB17414FEA8C554FEA0B
:100FC000910704EB9C2406FB07FC4FEA1C4C0CFB2E
:100FD0000BF7B0EBC74072EB573203FB0CF734BF93
:100FE000A2EBC742B2EBC74261EB57310CFB0EF7E5
:100FF000B0EBC70072EB57720CFB08F734BFA2EBE3
:10100000C702B2EBC70261EB577115EB4C254FEAF3
:10101000816141EA92114FEA82624FEAD13742EA96
:10102000901206FB07FC44F100044FEA80604FEA8F
:101030001C4C0CFB0BF7D21B03FB0CF761EB0701FD
:101040000CFB0EF7B0EB074072EB17420CFB08F7F6
:1010500034BFA2EB0742B2EB074261EB174115EB3D
:101060001C154FEA813141EA92414FEA823242EA4D
:1010700090424FEA80304FEA0C7644F1000448EA8F
:1010800003434EEA0B484FF0000EB2EB080C71EB35
:10109000030724BF624639464EEB0E0E4FF0000B9D
:1010A0000018524149414BEB0B0BB2EB080C71EBB2
:1010B00003077BF1000B24BF624639464EEB0E0E50
:1010C0004FF0000B0018524149414BEB0B0BB2EBB8
:1010D000080C71EB03077BF1000B24BF6246394615
:1010E0004EEB0E0E51EA020718BF46F0010616EB52
:1010F0000E7655F1000254F1000103D5BDE88901D7
:10110000BDE80088BDE88901BDE80048B619524134
:1011100041EB0101A3F10103704780807F7E7D7C5C
:101120007B7A7978777676757473727171706F6E79
:101130006E6D6C6C6B6A6A69686867666665646424
:10114000636362616160605F5F5E5E5D5D5C5C5BAE
:101150005B5A5A595958585757565655555554541D
:10116000535352525251515050504F4F4F4E4E4D7B
:101170004D4D4C4C4C4B4B4B4A4A4A4949494848C7
:101180004847474747464646454545444444444307
:1011900043434342424242414141002B9C4630D4AA
:1011A00077002BD01CB54FEA370703B44FF010007F
:1011B0004FF01001BAF1000F06D0BCF1000FDCBFF8
:1011C00040F0080040F008014FF000000FBCBDE8FF
:1011D00010400BF1010BBBF1010F08BF5FEA1707CD
:1011E00022BF12F1010211F101014FF0004143F160
:1011F000000300F0004043EA00007047F9D35708AD
:10120000D0E746EA064613F1400F4FEA16461FDDC7
:1012100013F1200FDFBF16430A46002120335B4243
:10122000BED0C3F1200746EA064602FA07F74FEAA6
:10123000164646EA0706C3F1200722FA03F201FA2E
:1012400007F721FA03F14FF0000342EA0702A7E78C
:1012500046EA020646EA06464FEA164646EA01060E
:10126000BCBF46EA0646360C4FF000034FF00002C2
:101270004FF0000194E72DE9804C9A46934670B4F4
:1012800091E8380007C831EA400C48BF34EA430C03
:1012900003D5FFF7E6FDFFF780FFF0BCBDE8008C4B
:1012A0002DE9804C9A46934670B491E8380007C8FF
:1012B00010F0804F08BF13F0804F03D100F005F805
:1012C000FFF76BFFF0BCBDE8008C20F07F4780EAA1
:1012D000030023F07F4C07EB0C03A3F57C5300F0D5
:1012E0000040A3F1FE0392F0000F00F0B38095F0F0
:1012F000000F00F077802DE901494FEA11404FEAD5
:10130000144621EA004800FB06FC24EA064708FBD5
:1013100006F607FB08F800FB07F718EB06484CEB4E
:10132000164C4FEA124B18EB07484FEA15464CEBA8
:10133000174022EA0B4E0BFB06FC25EA06470EFB84
:1013400006F607FB0EFE0BFB07F71EEB064E4CEBFB
:10135000164C4FF000061EEB074E4CEB174B18EBEC
:101360000B0840F1000018EB0E0B58EB000840F1A1
:1013700000008F1A4FF000013CBFC943661B14BF29
:10138000B5EB040C00213CBFC943F61B4FEA1744E0
:101390004EEA8E0E27EA04454FEA1C4704FB07621B
:1013A0002CEA074C05FB07F70CFB05F604FB0CFCCD
:1013B00016EB074642EB174216EB0C4642EB1C427B
:1013C0001BEB060658EB0202414146EA9E0601D598
:1013D000BDE80189B619524141EB0101A3F10103B6
:1013E000BDE801894FEA14454FEA114724EA054652
:1013F00021EA074C05FB07F406FB07F70CFB06F197
:1014000005FB0CFC11EB074144EB17444FEA124774
:1014100011EB0C4144EB1C4422EA074C05FB07F29C
:1014200006FB07F70CFB06F605FB0CFC16EB074664
:1014300042EB174216EB0C4642EB1C456A1854F17E
:10144000000148BF7047B619524141EB0101A3F1B9
:101450000103704795F0000F37D04FEA11424FEA71
:10146000144721EA024624EA074C02FB07F106FB77
:1014700007F70CFB06F402FB0CFC14EB074441EBF2
:1014800017414FEA154714EB0C4441EB1C4125EA88
:10149000074C02FB07F506FB07F70CFB06F602FB01
:1014A0000CFC16EB074645EB174516EB0C4645EBD7
:1014B0001C42121951F1000148BF7047B619524140
:1014C00041EB0101A3F1010370474FEA14454FEAD4
:1014D000114724EA054621EA074C05FB07F106FB04
:1014E00007F70CFB06F24FF0000605FB0CFC12EBB5
:1014F000074241EB174112EB0C4251EB1C4148BF34
:101500007047921841EB0101A3F101037047FEE718
:101510007047000010B5364C00221021204600F024
:1015200077FD642003F057FC01221021204600F0D3
:101530006FFD642003F04FFC00F05CF8122000F017
:101540008FF800F057F8012000F08AF82B2000F007
:10155000A7F8012000F0A4F8002000F0A1F8112065
:1015600000F07EF8032000F09BF8442000F078F8AB
:10157000002000F095F8312000F092F8452000F0AE
:101580006FF8002000F08CF8002000F089F82B2084
:1015900000F086F8012000F083F83C2000F060F8AD
:1015A000012000F07DF8182000F05AF8802000F0AB
:1015B00077F8222000F054F8B12000F071F82020D4
:1015C00000F04EF800F016F84E2000F049F8002028
:1015D00000F066F84F2000F043F8002000F060F8BB
:1015E000002000F05DF8BDE8104000F003B80000F6
:1015F0000004004810B5044C2021204600F003FDF3
:101600000028F9D110BD0000000400482DE9F04188
:1016100004464FF480564FF090470022314638463A
:1016200000F0F6FC00254FF40068200601D50122E9
:1016300000E000224146384600F0EAFC0122314633
:10164000384600F0E5FC00223146384600F0E0FC68
:1016500060066D1C040EEDB2082DE6D3BDE8F081E6
:1016600070B505464FF0904401221021204600F04D
:10167000CFFC00221021204600F0CAFC00220821E5
:10168000064800F0C5FC2846FFF7C0FF2046BDE82D
:1016900070400122102100F0BBBC00000004004893
:1016A00070B505464FF0904401221021204600F00D
:1016B000AFFC00221021204600F0AAFC01220821E4
:1016C000064800F0A5FC2846FFF7A0FF2046BDE82D
:1016D00070400122102100F09BBC00000004004873
:1016E00072B600F09BFC024602A1002002F0F0FC62
:1016F000FEE700004552522054494D453D25640AFD
:1017000000000000FFB5194D02464FF0FF366B6830
:101710001E2B28DA1648012400EB041757F8107C1A
:1017200027B11E2C1FD0641C1E2CF5DD00EB04100D
:1017300060E9044200220272002901DDC16000E07C
:10174000C2601E2B0FDA5B1C6B604FF48050009060
:101750000392CDE9014201226946064802F017FBD7
:10176000204604B0F0BD3046FBE7000050000020EA
:10177000100B0020F00C00200FB54FF40051009129
:1017800000210391CDE9010101226946014802F0DF
:10179000FEFA0FBDF00C00200FB54FF4A0410091F0
:1017A00000210391CDE9010101226946014802F0BF
:1017B000EEFA0FBDF00C00200FB54FF4045100916C
:1017C00000210391CDE9010101226946014802F09F
:1017D000DEFA0FBDF00C00202DE9F84F002704467B
:1017E000009790F85000DFF8B0930D46B8460128F6
:1017F00011D0012684F85060206802F047F960B1EA
:10180000606D40F0200060655FF0010784F8508053
:10181000384600F0D7B90220FBE769680C2005299B
:1018200012D8022907D0032907D0042907D0052997
:1018300007D0062107E0686006E0122103E01821C6
:1018400001E04FF480716960D5E90021236800EA66
:1018500091101844036B01F01F014FF01F0C0CFA9C
:1018600001FCC2F3846223EA0C038A40134303633E
:10187000206802F00BF98246206802F003F95AEA68
:1018800000001DD1AA682968206802F003F92068C9
:101890006969C268C2F3C102520091402A69042AF0
:1018A0000FD000EB82002B68026EDFF8F0C203F06D
:1018B000F84302EA0C020B431A4342F0004101666E
:1018C00072E0002102F0D8F8400320684FF00001D8
:1018D00072D002F0D1F890FAA0F0B0FA80F1286846
:1018E00042036ED090FAA0F0B0FA80F0814204D1A9
:1018F00000221146206802F0DCF80121206802F085
:10190000BBF8400320684FF001015DD002F0B4F84D
:1019100090FAA0F0B0FA80F12868420359D090FA0A
:10192000A0F0B0FA80F0814204D1002201212068A9
:1019300002F0BFF80221206802F09EF84003206800
:101940004FF0020148D002F097F890FAA0F0B0FAF8
:1019500080F12868420344D090FAA0F0B0FA80F0F9
:10196000814204D100220221206802F0A2F8032162
:10197000206802F081F8400320684FF0030133D063
:1019800002F07AF890FAA0F0B0FA80F128684203E9
:101990002FD090FAA0F0B0FA80F0814204D100225A
:1019A0000321206802F085F82068816811F0010F9A
:1019B00022D0ACE000E004E002F05EF8C0F3846105
:1019C0008DE7C0F3846091E702F056F8C0F38461BC
:1019D000A2E7C0F38460A6E702F04EF8C0F384618A
:1019E000B7E7C0F38460BBE702F046F8C0F3846158
:1019F000CCE7C0F38460D0E72A7B296850F8B03F79
:101A0000C1F3120C23EA0C0302F0180C644A22FA08
:101A10000CF20A4013430360E968494577D128680E
:101A200041031CD090FAA0F1B1FA81F1491C01F0F8
:101A30001F0109294FEA403132D8002912D000BFD6
:101A400090FAA0F1B1FA81F101F1010101F01F0159
:101A500006FA01F609D100BFC0F3846109E0C0F3C2
:101A60008461E3E7C0F38461EEE790FAA0F1B1FA94
:101A700081F101F1010101F01F0146EA816102D10A
:101A8000C0F3846003E090FAA0F0B0FA80F000F1B7
:101A9000010000F01F0000EB400041EA005132E07D
:101AA00000290ED090FAA0F1B1FA81F101F1010103
:101AB00001F01F0106FA01F606D100BFC0F38461F0
:101AC00006E0C0F38461F1E790FAA0F1B1FA81F188
:101AD00001F1010101F01F0146EA816102D1C0F369
:101AE000846003E090FAA0F0B0FA80F000F1010009
:101AF00000F01F002B4A00EB400002EB005041EACF
:101B0000000141F00071AA68206801F0C3FF264877
:101B10002A6802423FF47AAE24488168244D254B5E
:101B200001F0E071AA421BD10D0219D422689A4239
:101B30007FF46CAE826841F4000122F0E0720A4347
:101B400082601D481D490068B0FBF1F0401C00EBAD
:101B50004000800000E0401E00900028FBD155E6C8
:101B6000174DAA4207D1CD0105D422689A42F6D179
:101B700041F080710AE06FF00045EA42EFD14A027D
:101B8000EDD422689A42EAD141F48001826822F0C1
:101B9000E0720A43826039E600007F4000F0FF03F4
:101BA000FFFF0700000020FE000008800003045033
:101BB000000052C70000045010000020400D030038
:101BC000000084CB18BCBDE8E08F0000F8B54FF0F2
:101BD000000504002E46009502D0606D10B107E0AC
:101BE0000120F8BD204600F0C9F8A66584F85060D1
:101BF00020688168C1F3407119B18168574A11406A
:101C0000816020688168C1F3007189B98168544A94
:101C1000114041F080518160524853490068B0FB47
:101C2000F1F04000801C00E0401E00900028FBD135
:101C300020688168C1F3007141B9616D41F0100104
:101C40006165A16D41F00101A165012501F01EFF53
:101C5000616DC90600D430B1606D40F01000606560
:101C600001252846F8BD606D20F4807040F0020028
:101C700060652068806810F0010F0BD13B488068D8
:101C800010F0010F06D13A486168826822F47C1294
:101C90000A438260E168606B627E0843A16841EAA2
:101CA0004231084394F8201040EA0140012904D150
:101CB000A18C304A02EB41410843A16A29B101F4E9
:101CC0007071E26A014342EA01002168CA682A4B46
:101CD0001A400243CA60206801F0D8FE0646206818
:101CE00001F0D0FE304315D1207E94F830108003EF
:101CF00040EA41002168CA6844F202039A43024361
:101D0000CA6094F8380001280CD02068016921F0DD
:101D100001010161206901282068016B21F00F0198
:101D200011D013E0D4E90F010843D4E91112114393
:101D3000084321680A6940F2FC739A43104340F05B
:101D400001000861E6E7E269521E11430163606D1C
:101D500020F0020040F00100606582E7C0FFFF5FF5
:101D6000C0FFFF7F10000020400D03000000045062
:101D7000000304500000FEFF07C0F0FF10B59EB046
:101D80000446142117A8FEF7F9FB5C216846FEF70C
:101D9000F5FB1C492068884231D14FF48040009007
:101DA0008003149002240120CDE901400820039013
:101DB0000720CDE904048801CDE90640684600F01B
:101DC00087FC08B1FFF78CFC0F48C16C41F400514F
:101DD000C164C16C01F400511C91C16C41F001015E
:101DE000C164C06C17A900F001001C900B20CDE964
:101DF0001740002019904FF0904000F019F81EB0E5
:101E000010BD0000000004500010024070B50446F0
:101E100000F004F90546601C02D004480078044430
:101E200000F0FCF8401BA042FAD370BD0400002073
:101E30002DE9F04FDFF8AC9100230325A9F1040B45
:101E400085B04FF0010C0F2709F1040AABF1040E25
:101E5000BFE000BF0CFA03F6324075D00C7904F0F5
:101E60000304012C01D0022C1BD1846800945C0077
:101E700005FA04F80494009C24EA08040094D1F8BC
:101E80000C80049C08FA04F8009C48EA0408C0F896
:101E900008804468B4430E79C6F300169E4026437A
:101EA00046600C79E443A4070AD0C4684FEA4308AB
:101EB00005FA08F6B4438E6806FA08F62643C660AB
:101EC0000C7904F00304022C10D1DC0800EB84042C
:101ED0000294246A5E074FEAD66807FA08F6B4430C
:101EE0000E6906FA08F62643029C266204684FEA49
:101EF000430805FA08F6B4430E7906F0030606FA1D
:101F000008F6264306604C6814F4403F60D0364C17
:101F1000266E46F001062666246E23F0030604F0C2
:101F200001040094314C34440294A4689E074FEAA3
:101F3000167807FA08F6B443B0F1904F05D02C4E4E
:101F4000B04204D1012612E042E000260FE0294E03
:101F5000B04201D102260AE0274EB04201D1032649
:101F600005E0264EB04201D1042600E0072606FA1D
:101F700008F62643029CA660D9F800604C46D1F8CA
:101F8000048096435FEAC82800D516432660DAF835
:101F900000405646D1F8048094435FEA882800D573
:101FA00014433460DBF800405E46D1F8048094436B
:101FB0005FEA883800D514433460DEF80040764686
:101FC000D1F8048094435FEAC83800D514433460E4
:101FD0005B1C0A6832FA03F47FF43CAF05B000F0F2
:101FE0000FB800000804014000100240000001404A
:101FF0000004004800080048000C00480010004899
:1020000030BCBDE8C08F0069084000D00120704797
:102010000AB18161704781627047000001488068A1
:10202000704700000400002090F84120202A24D1AD
:1020300090F84020012A20D0012280F8402024225C
:1020400080F841200268136823F0010313600268DE
:10205000136823F480531360026813680B43136002
:1020600001680A6842F001020A60202180F84110EC
:10207000002180F84010084670470220704790F811
:102080004120202A22D190F84020012A1ED001228E
:1020900080F84020242280F841200268136823F051
:1020A000010313600268136823F4706343EA01219B
:1020B000116001680A6842F001020A60202180F87C
:1020C0004110002180F840100846704702207047F8
:1020D00070B5040004D094F84100002510B106E06A
:1020E000012070BD84F84050204600F0B3F9242050
:1020F00084F841002068016821F0010101606068F6
:10210000216820F0706008612068816821F4004136
:102110008160E0680128A06807D040F4044021688D
:102120008860E068022803D006E040F40040F6E74B
:1021300021684FF40060486020684168114A1143EB
:1021400041602068C16821F40041C160D4E9040104
:102150000843A16940EA01202168C860D4E9070169
:102160000843216808602068016841F001010160AE
:102170006564202084F84100256384F842500020E3
:1021800070BD0000008000022DE9FF4F83B00446BF
:10219000DDE9108790F84100DDF848909A469346B3
:1021A000202874D15FEA080014D09FB194F8400051
:1021B00001286CD0012084F84000FFF72FFF06466D
:1021C000012200901923D103204601F0DBFB0028F7
:1021D00071D103E04FF4007060646CE0222084F859
:1021E0004100402084F8420000256564C4F8248042
:1021F00067856563CDE9009653465A4620460499A3
:1022000001F044FB10B184F8405054E0618D354832
:10221000FF274FF080784FF0007AFF2904D92785F7
:102220003A464346009005E0618D2185009094F880
:10223000282053462046049901F08CFB4B4600228F
:1022400004212046009601F09DFBA0BB2068406A57
:10225000616A0870606A401C6062208D401E81B215
:102260002185608D401E6085608DD8B1D1B94B4607
:10227000002280212046009601F084FBD8B9608DB1
:10228000FF2805D927853A464346009506E026E013
:10229000608D2085009594F82820534620460499A7
:1022A00001F058FB608D0028C8D1324649462046CF
:1022B00001F094FB18B1012007B000F017B82168B5
:1022C0002020C86121684A68074B1A404A6084F898
:1022D000410084F8425084F840500020ECE702208E
:1022E000EAE700000024008000E800FE30BCBDE802
:1022F000C08F00002DE9FF4F83B00446DDE9108751
:1023000090F84100DDF848909A469346202871D114
:102310005FEA080014D09FB194F84000012869D00A
:10232000012084F84000FFF779FE06460122009064
:102330001923D103204601F025FB00286ED103E0CC
:102340004FF40070606469E0212084F8410040206F
:1023500084F8420000256564C4F8248067856563BD
:10236000CDE9009653465A462046049901F0C0FA3A
:1023700010B184F8405051E0608DFF274FF0807815
:102380004FF0007AFF2804D927853A464346009546
:1023900005E0608D2085009594F82820534620465E
:1023A000049901F0D7FA32464946204601F03CFB39
:1023B000A0BB606A216800788862606A401C606225
:1023C000608D401E6085208D401E80B22085618D0D
:1023D000D9B1D0B94B46002280212046009601F0A9
:1023E000D1FAD8B9608DFF2805D927853A464346EA
:1023F000009506E026E0608D2085009594F8282061
:1024000053462046049901F0A5FA608D0028CAD1F0
:1024100032464946204601F0E1FA18B1012007B0E2
:1024200000F014B820682021C16120684268064B82
:102430001A40426084F8411084F8425084F84050B9
:102440000020ECE70220EAE700E800FE30BCBDE82F
:10245000C08F000030B59DB00446142117A8FEF7C8
:102460008DF85C216846FEF789F817492068884294
:1024700027D14020002500900C95684600F028F9EF
:1024800008B1FFF72DF9114CE06C40F00200E06458
:10249000E06C17A900F002001C90C02017901220D9
:1024A000CDE9180503201A9004201B900848FFF777
:1024B000BFFCA06D40F40010A065A06D00F40010FA
:1024C0001C901DB030BD00000054004000100240C0
:1024D0000004004802488168027811448160704716
:1024E0000400002010B50024032000F071F80F2034
:1024F00000F008F808B1012401E000F025F82046BA
:1025000010BD000070B50E4E05460024307898B11D
:102510004FF47A71B1FBF0F00A490968B1FBF0F0B1
:1025200001F044F840B9102D06D200222946501E71
:1025300000F02EF8756000E00124204670BD000018
:102540000400002010000020094808B5016E41F089
:1025500001010166016E01F001010091816D41F000
:1025600080518165806D00F08050009008BD0000B2
:1025700000100240002809DB00F01F0201219140F9
:102580004009800000F1E020C0F800117047000011
:10259000F0B40E4B1B680C46C3F30223C3F10705CE
:1025A000042D00D90425191D072901D2002300E0BC
:1025B000DB1E012606FA05F1491E214099409E4086
:1025C000761E16403143F0BC02F05CBB0CED00E01F
:1025D000064900F0070208684FF6FF03184040EA7A
:1025E0000220034A10430860704700000CED00E031
:1025F0000000FA051649B0F5007F0868C0F34120D5
:1026000009D0022805D0086820F4C06040F480603A
:102610000860002070470128FBD0086820F4C060E3
:1026200040F4007008600B483222006850430A4AA8
:10263000B0FBF2F0401C00E0401E4A69520501D593
:102640000028F9D148694005E3D503207047000010
:10265000007000401000002040420F000248006857
:1026600000F4C060704700000070004003498A68B1
:1026700000F01F0082438A60704700000070004035
:102680000248016841F480710160704700700040A9
:102690000549CB6800F01F02934343EA5010C8601D
:1026A00088681043886070470070004006480168E1
:1026B00021F00701C91C01600448016841F00401D0
:1026C000016030BF704700000070004010ED00E076
:1026D0002DE9F84F044600270088A84D3E46000526
:1026E00015D5606C60B1B0F5000F04D0B0F5400FA7
:1026F0002BD001270AE0E86840F48030E86024E04D
:102700000021201D01F066FB07001ED03E46206818
:1027100080033AD5A86D4FF00008C00009D4A86D19
:1027200040F08050A865A86D4FF0010800F080507F
:102730000090DFF84CA2DAF8001041F48071CAF87A
:102740000010FFF76BFC814610E0D5F88800616C43
:1027500020F440000843C5F88800D8E7FFF75EFC86
:10276000A0EB0900022801D9032705E0DAF80000F0
:10277000C005F3D5002F7DD04FEA0706B8F1000F52
:1027800003D0A86D20F08050A8652078C00707D03E
:10279000D5F88800216A20F003000843C5F88800B6
:1027A0002078800707D5D5F88800616A20F00C00F2
:1027B0000843C5F888002078400707D5D5F8880079
:1027C000A16A20F030000843C5F888002078800610
:1027D00007D5D5F88800E16A20F440600843C5F8C1
:1027E00088002088800507D5D5F88800E16B20F4A3
:1027F00040200843C5F888002088400507D5D5F853
:102800008800216C20F440100843C5F88800207827
:10281000400607D5D5F88800216B20F440500843C6
:10282000C5F888002078000607D5D5F88800616BC8
:1028300020F440400843C5F888002088C00507D52B
:10284000D5F88800A16B20F440300843C5F8880013
:1028500020684FF0006700034FF0806850D5D5F82E
:102860008800A16C20F040600843C5F88800A06C87
:10287000B84200E005E03BD1E86840F48010E86031
:102880003EE0D5F8900010F4407014D0A16D814264
:1028900011D0D5F89000D5F8901020F4407041F494
:1028A0008031C5F89010D5F8901021F48031C5F82A
:1028B0009010C5F89000C00711D0FFF7AFFB074696
:1028C00041F2883907E000BFFFF7A8FBC11B49456B
:1028D00001D9032652E7D5F890008007F4D5D5F842
:1028E0009000A16D20F440700843C5F8900045E7C2
:1028F000404505D10121201D01F06CFA00B10646CA
:102900002068400317D5D5F88800E16C20F04060BE
:102910000843C5F88800E06CB84204D1E86840F488
:102920008010E86007E0404505D10121201D01F03D
:1029300051FA00B106462088400411D5D5F8880028
:10294000216D20F040500843C5F88800206DB0F19B
:10295000805F05D10221201D01F03CFA00B106463E
:102960002088000406D555F8880F616D20F080405E
:1029700008432860304600F005B80000001002400F
:102980000070004018BCBDE8E08F00002DE9F04762
:102990000F46050058D0404E306800F00700B8429E
:1029A00009D2306820F0070038433060306800F00A
:1029B0000700B84248D12878384CC0072CD0686846
:1029C000032811D0022812D0216898B149050029A6
:1029D0003ADAA16821F003010143A160FFF71EFB71
:1029E000804641F2883910E021688901EFE72168CB
:1029F0008903ECE78907EAE7FFF710FBA0EB080182
:102A0000494502D90320BDE8F087A068696800F055
:102A10000C00B0EB810FEFD12878800705D5A068B6
:102A2000A96820F0F0000843A060306800F00700BB
:102A3000B8420BD9306820F0070038433060306866
:102A400000F00700B84201D00120DCE728784007F9
:102A500005D5A068E96820F4E0600843A060287804
:102A6000000706D5A068296920F4605040EAC1003B
:102A7000A06000F03FF8A168094AC1F30311515C5E
:102A800001F01F01C8400749086007480068BDE819
:102A9000F047FFF737BD0000002002400010024061
:102AA00008560008100000200800002005480649CC
:102AB00000688968054AC1F30221515C01F01F01D9
:102AC000C84070471000002000100240485600081F
:102AD0000548064900688968054AC1F3C221515C6E
:102AE00001F01F01C8407047100000200010024094
:102AF0004856000870B52549002318468A68CC68F6
:102B000012F00C0204F00306214C4FEA640509D0D0
:102B10000C2A05D0042A32D0082A00D1284670BDDC
:102B2000012E10D10B681B0704D4D1F89430C3F3E5
:102B3000032302E00B68C3F30313164E56F8233049
:102B4000DAB10C2AEBD1C86800F00300022818D0D3
:102B5000032818D01846CA68CB68C2F30212C3F320
:102B600006234343521CB3FBF2F2C868C0F3416032
:102B7000401C4000B2FBF0F070BD184670BD20460E
:102B800070BD2046E7E72846E5E700000010024058
:102B90000024F400185600082DE9F84304006FD013
:102BA000FE4DA86800F00C06E86800F003072078E6
:102BB000C00664D576B10C2E01D1012F0AD0A069D0
:102BC000002828687AD040F001002860FFF726FA34
:102BD00080465DE02868800702D5A0690028DED025
:102BE000216A2868000703D5286800F0F00004E097
:102BF000D5F89400F02202EA1010814216D9084656
:102C000001F07EF900283BD1286840F008002860D8
:102C10002868216A20F0F000084328606868E169AC
:102C200020F47F4040EA0120686016E0286840F008
:102C3000080028602868216A20F0F0000843286016
:102C40006868E16920F47F4040EA0120686026B9A5
:102C5000206A01F055F90028D5D1FFF74BFFA9688C
:102C6000CF4AC1F30311515C01F01F01C840CD49A7
:102C70000860CD480068FFF745FC00287ED12EE0B3
:102C8000CAE000BFFFF7CAF9A0EB0800022876D817
:102C900028688007F6D5286840F008002860286872
:102CA000216A20F0F000084328606868E16920F498
:102CB0007F4040EA0120686011E0FFE720F001005A
:102CC0002860FFF7ABF9804606E000BFFFF7A6F9E2
:102CD000A0EB08000228DAD828688007F6D420780C
:102CE000C00740D0082E18D00C2E01D1032F14D0CD
:102CF0006068B0F5803F17D0B0F5A02F286817D0D6
:102D000020F480302860286820F4802028606068E3
:102D1000E0B1FFF783F9804614E02868800322D5EC
:102D20006068002878D01EE0286840F48030EDE725
:102D300040F480202860F7E7FFF770F9A0EB080067
:102D40006428A4D828688003F6D50CE0FFF766F95C
:102D5000804605E0FFF762F9A0EB0800642896D8EA
:102D600028688003F6D4207880073BD5042E11D044
:102D70000C2E01D1022F0DD0E06801E0B6E1FFE09A
:102D8000002828681ED040F480702860FFF746F9BC
:102D900007460CE0286840050CD5E0680028C1D043
:102DA00008E000BFFFF73AF9C01B022893D8286853
:102DB0004005F7D56868217C20F0F85040EA0160B2
:102DC00068600FE020F480702860FFF727F907465D
:102DD00005E000BFFFF722F9C01B0228B1D8286820
:102DE0004005F7D42078000729D560690028D5F878
:102DF000940012D040F00100C5F89400FFF70EF9DE
:102E0000074604E0FFF70AF9C01B022899D8D5F855
:102E100094008007F6D512E02BE120F00100C5F800
:102E20009400FFF7FBF8074605E000BFFFF7F6F850
:102E3000C01B022885D8D5F894008007F6D42078E6
:102E4000400766D5A86D0027C00008D4A86D40F0E3
:102E50008050A865A86D012700F08050009053486D
:102E60000168C90512D40168814641F4807101608E
:102E7000FFF7D4F8804605E0FFF7D0F8A0EB080094
:102E800002287DD8D9F80000C005F5D5A068012832
:102E900016D00528D5F8900017D020F00100C5F80D
:102EA0009000D5F8900020F0040000BFC5F8900015
:102EB000A06841F28839C0B1FFF7B0F880460FE052
:102EC000D5F8900040F00100F0E740F00400C5F8AC
:102ED0009000F5E7FFF7A2F8A0EB080149454FD8AD
:102EE000D5F890008007F5D50EE0FFF797F88046FB
:102EF00006E000BFFFF792F8A0EB080149453FD874
:102F0000D5F890008007F5D41FB1A86D20F080504F
:102F1000A8652078800628D5606A0028D5F8980032
:102F200012D040F00100C5F89800FFF777F8074687
:102F300005E000BFFFF772F8C01B022820D8D5F8C3
:102F400098008007F6D510E020F00100C5F8980041
:102F5000FFF764F8074604E0FFF760F8C01B02289B
:102F60000ED8D5F898008007F6D4A06AA8B1022838
:102F700024D00C2E7DD0286820F08070286000E0DE
:102F8000B3E02868000103D4E86820F00300E8609B
:102F9000E86807490840E8600CE09FE00010024044
:102FA00008560008100000200800002000700040B3
:102FB000FFFFEEFEFFF732F8044699E0E868E26AA8
:102FC00000F00301914226D1216B00F0700209014B
:102FD000103991421FD1626B00F4FE41B1EB022F18
:102FE00019D194F8382000F07841B1EBC26F12D1BA
:102FF000A18F00F4C00249084905A1F500119142D2
:1030000009D194F8401000F0C06049084906A1F1C8
:10301000007181424BD00C2E6FD0286840016CD4D7
:10302000286820F080702860FEF7F8FF064604E06C
:10303000FEF7F4FF801B022857D828688001F7D4D8
:10304000F4E90B016FF00F0202EB01110843218A32
:103050005204490802EB4151A26841EA02210843A7
:10306000217D4FF07E42490802EB41610843217BFC
:1030700000E042E040EAC160E968214A11400843AB
:10308000E860286840F080702860E86840F0807050
:10309000E860FEF7C3FF044605E000BFFEF7BEFF91
:1030A000001B022821D828688001F7D523E0286872
:1030B000800120D4286840F080702860E86840F0E3
:1030C0008070E860FEF7AAFF044604E0FEF7A6FF62
:1030D000001B022809D828688001F7D50BE000BF43
:1030E000FEF79CFF001B022802D90320BDE8F883ED
:1030F00028688001F4D40020F8E70120F6E70000FA
:103100008C809D012DE9F047044690F820000128AD
:103110001ED0012684F82060022084F82100216856
:10312000CA2048622168532048622068816821F4DF
:10313000806181602068816821F480418160FEF7B0
:103140006DFF054600274FF0FF084FF47A7911E034
:103150000220BDE8F08700BFFEF760FF401B484536
:1031600008D92168C1F82480032084F8210084F85C
:103170002070EEE72068C0684007EDD52168C1F8EF
:10318000248084F8216084F820700020E1E70000AA
:103190002DE9F05F044690F8200093468A46012806
:1031A00025D0012684F82060022084F821002168BF
:1031B000CA2048622168532048622068816821F44F
:1031C000806181602068C16801F0800161F49061D4
:1031D000C1602068C0684FF0000740064FF0FF084C
:1031E0001AD4FEF71BFF05464FF47A7910E002204F
:1031F00000F03CB8FEF712FF401B484508D9216893
:10320000C1F82480032084F8210084F82070EFE7BF
:103210002068C0684007EDD52168C1F814A0206877
:10322000816821F0070141EA0B0181600E480168C5
:1032300041F4801101600C480830016841F48011AC
:1032400001602068816841F4804181602068816864
:1032500041F4806181602168C1F8248084F8216094
:1032600084F820700020C3E70004014030BCBDE8B2
:10327000C09F704710B50B4904464FF4801008609A
:103280002068C168490508D5C16801F0800161F472
:103290009061C1602046FFF7ECFF012084F8210017
:1032A00010BD00001404014010B500680B464168D1
:1032B0000D480140080CD870C1F304245C7001F083
:1032C0003F049C70C1F34231197052B900F056FEB0
:1032D000D870587800F052FE5870987800F04EFE82
:1032E0009870002010BD00003FFFFF0010B50B4696
:1032F0000168896A596001680969C1F30E01996022
:10330000006801680D480140C1F305401870C1F321
:1033100006245C7001F07F049C70890DD97052B94D
:1033200000F02CFE1870587800F028FE587098783D
:1033300000F024FE9870002010BD00007F7F7F0009
:1033400010B504004FF0010044D094F8210028B9D2
:10335000002084F82000204600F040F8022084F885
:1033600021002168CA204862216853204862204613
:1033700000F00EFE00282DD120688168164A114009
:103380008160216888686268A369104322691A43D2
:10339000104388602168E06808612068016922891B
:1033A00041EA02410161204600F016FE002811D1D9
:1033B0002168CA6C22F00302CA646269E1691143A0
:1033C0002268D36C1943D1642268FF215162012124
:1033D00084F8211010BD0000BFFF8FFF10B598B01A
:1033E00004465C216846FDF7C9F80F492068884209
:1033F00018D14FF400300090401216906846FFF745
:1034000067F908B1FEF76CF9084850F8901F41F4CD
:1034100000410160002211460320FFF7B9F80320A4
:10342000FFF7A8F818B010BD0028004000100240B7
:1034300070B504460068C16821F0A001C160FEF7C4
:10344000EDFD05464FF47A7607E000BFFEF7E6FD96
:10345000401BB04201D9032070BD2068C0688006BF
:10346000F4D5002070BD70B5040009D0606A002555
:1034700040B125616561A56294F85D0040B10CE042
:10348000012070BD6068B0F5827FF4D0E561F2E79D
:1034900084F85C50204600F057F8022084F85D0064
:1034A0002068016821F040010160E1684FF4E062AA
:1034B000914201D9002001E04FF48050B1F5706FC6
:1034C00002D0914200D0A562A188228901F48271C4
:1034D00002F404421143227C02F002021143227DD5
:1034E00002F001021143228B02F400721143227F89
:1034F00002F03802114394F8202002F080021143B8
:10350000228D02F40052114322681160A169042245
:1035100002EA114194F8242000F4805002F01002D5
:10352000114394F8342002F008021143A28902F4F6
:10353000706211430143206841602566012084F8D0
:103540005D00002070BD000010B586B00446142157
:103550006846FDF713F81349206888421FD11248C6
:10356000016E41F480510166016E01F480510591B4
:10357000C16C41F00101C164C06C694600F00100FA
:103580000590E0200090022001900020029003208E
:103590000390052004904FF09040FEF749FC06B0E0
:1035A00010BD0000003001400010024010B5401E68
:1035B000B0F1807F01D3012010BD4FF0E0246061A5
:1035C0000F21601701F05EFB0020A0610720206141
:1035D000002010BD10B5040003D094F83D0010B1D8
:1035E00007E0012010BD002084F83C00204600F0D8
:1035F00023F8022084F83D00211D206800F066FFBA
:10360000012084F8480084F83E0084F83F0084F8E4
:10361000400084F8410084F8420084F8430084F8B4
:10362000440084F8450084F8460084F8470084F894
:103630003D00002010BD000008B500680649884222
:1036400008D10648016E41F400310166006E00F4B5
:103650000030009008BD000000440140001002400E
:1036600010B5040002D0A06F10B107E0012010BD1A
:10367000002084F87400204600F026F82420A0677B
:103680002068016821F001010160204600F0E6FF9A
:103690000128ECD0606A10B1204600F04DFF206890
:1036A000416821F4904141602068816821F02A013D
:1036B00081602068016841F0010101602046BDE899
:1036C000104000F09DBF000010B59EB004461421CC
:1036D00017A8FCF753FF5C216846FCF74FFF184919
:1036E0002068884229D1012000240090089468466F
:1036F000FEF7EEFF08B1FDF7F3FF1248016E41F44B
:1037000080410166016E01F480411C91C16C41F061
:103710000101C164C06C17A900F001001C904FF4B6
:10372000C06017900220CDE9180403201A900720EA
:103730001B904FF09040FEF77BFB1EB010BD0000C9
:103740000038014000100240FEE701688A69D24358
:10375000920701D400228A6200688169C943C907BF
:1037600003D0816941F00101816170472DE9F04783
:10377000044600688A461746816900252E46C90618
:10378000A9464FF0200849D51021C16137E000BF9C
:10379000BAF1FF3F33D0FEF741FCC11B514502D8BF
:1037A000BAF1000F2BD12068416894F8422001F44F
:1037B00080418369DB431B041CD4B1F5804F19D0D1
:1037C000202A17D0416841F480414160FEF726FC71
:1037D00007460FE0FEF722FCC01B19280AD9606CCF
:1037E00040F02000606484F8418084F8429084F8BE
:1037F0004090012520688069C0438006EAD4206893
:103800008069C043800602D5002DC1D003E015B900
:103810002168C1F81C8046F00406012521688869EA
:10382000C20505D54FF4807246F00106CA61012534
:10383000410509D522684FF4806146F00806D16140
:103840000125800502D40AE0800507D521684FF4E0
:10385000007046F00206C861012500E08DB12046E7
:10386000FFF773FF54F8240B4168074A1140416089
:10387000206A3043206284F81D8084F81E9084F80A
:103880001C902846BDE8F08700E800FE2DE9F843CB
:1038900004461646DDE9089714489846DAB20090C7
:1038A0000023204600F056F83A464946204600F0EC
:1038B000BBF8B8B9F5B2B8F1010F08D02168300AE9
:1038C00088623A464946204600F0AEF850B9206872
:1038D00085624B46002240212046009700F052F8B6
:1038E000002800D00120BDE8F883000000200080FF
:1038F0002DE9F8430446164615489846DDE9089731
:10390000DAB2C3020090204600F024F83A46494655
:10391000204600F089F8B8B9F5B2B8F1010F08D027
:103920002168300A88623A464946204600F07CF811
:1039300050B9206885624B460022802120460097BE
:1039400000F020F8002800D00120BDE8F883000036
:103950000020008010B5C1F3090141EA024102686C
:10396000029C19432143506821F000414FF48063C9
:1039700003EA5453024C234398430843506010BD5C
:10398000FF63FF032DE9F0411D4617460E4604462E
:10399000DDF8188008E0681C06D0FEF73FFBA0EBBE
:1039A0000800A8420BD855B12068806936EA0000AB
:1039B00012D00020B842EED00020BDE8F08154F8CB
:1039C000440F40F0200044F80409202060700020DB
:1039D000A07020700120F0E70120EBE770B51646DB
:1039E0000D4604460DE0324629462046FFF7BEFE4E
:1039F00008B1012070BDFEF711FB801BA84207D85B
:103A000035B120688069C0438006ECD4002070BDC9
:103A100054F8440F40F0200044F80409202060705E
:103A20000020A0702070E4E770B516460D460446ED
:103A30000FE0324629462046FFF798FE08B10120E4
:103A400070BD681C05D0FEF7E9FA801BA84207D8B4
:103A500035B120688069C0438007EAD4002070BD7A
:103A600054F8440F40F0200044F80409202060700E
:103A70000020A0702070E2E700EB8100006E00F0F3
:103A8000F84070478068C0F3C00070478068C0F39A
:103A900080007047042303EAD15310B518444369EA
:103AA000C1F3045107248C40A3438A40134343616C
:103AB00010BD00EB8100016E21F000411143016651
:103AC0007047000030B587B018216846FCF756FDF6
:103AD000184817490024C0E9001484600425C46014
:103AE000C0E90445047644760121C16180F8204094
:103AF0008462C46280F83040446380F83840FEF746
:103B000065F808B1FDF7ECFD0B4800900620CDE903
:103B100001047F200594CDE9030569460548FDF7BA
:103B20005BFE002801D0FDF7DBFD07B030BD0000D3
:103B30000000045008090020400020192DE9F04140
:103B400086B014216846FCF719FD3848C16C41F075
:103B50000401C164C16C01F004010591C16C41F024
:103B60000101C164C16C01F001010591C16C41F01A
:103B70000201C164C16C01F002010591C16C41F008
:103B80008001C164C06C49F6101500F080004FF050
:103B900090460590002229463046FEF739FA244F18
:103BA000002218213846FEF733FADFF88880002219
:103BB00008214046FEF72CFA00240C20CDE9000431
:103BC000694630460294FEF733F900950125CDE9A8
:103BD0000154694630460394FEF72AF90320009009
:103BE0004FF48810CDE9010469463846FEF720F904
:103BF00018200090CDE90154694638460394FEF739
:103C000017F92020CDE90004694638460294FEF7F2
:103C10000FF908200090CDE901546946404603940D
:103C2000FEF706F906B0BDE8F08100000010024082
:103C300000040048001C0048134810B511490160F9
:103C40001249416000210122C0E902120161416173
:103C50008161C1610162FEF73BFA08B1FDF740FDE9
:103C600000210948FEF7E0F908B1FDF739FD002110
:103C70000548FEF704FA002803D0BDE81040FDF720
:103C80002FBD10BD005400406C090020EC9C90102A
:103C90000C4810B50A49016000217F22C0E90112D9
:103CA000FF22C0E9032141618161C161FFF748FB47
:103CB000002803D0BDE81040FDF712BD10BD000084
:103CC00000280040B8090020124810B510490160D2
:103CD0004FF48271416000214FF44072C0E902123A
:103CE0004FF400720161C0E90512C161016207224F
:103CF0004162C0E90A12016308214163FFF7B3FB87
:103D0000002803D0BDE81040FDF7EABC10BD00005C
:103D100000300140DC0900200C4810B50A49016060
:103D20004F214160002140F2E732C0E902120161F7
:103D3000416180218161FFF74DFC002803D0BDE87F
:103D40001040FDF7CDBC10BD00440140400A0020EA
:103D50000D4810B50B4901604FF4E131416000217D
:103D600081600C22C160C0E904128161C1610162FD
:103D70004162FFF775FC002803D0BDE81040FDF755
:103D8000AFBC10BD003801408C0A0020FEE7F0B542
:103D90000025846817E0C3680668103403EB061337
:103DA000A34200D8C4684368A3420ED00B4686687D
:103DB00010311F6837605F6877609F68B760DB68A5
:103DC000F36084606D1C9542E5D32846F0BDFEE7A4
:103DD000704700002DE9F041444C05468846E068F4
:103DE0000026810728680DD0E16801F003018142B7
:103DF00016D1A8B1E0686968C0F30210401C88427F
:103E00000ED120E0012804D0022805D0032807D1D4
:103E100008E02168890701E021684905002907DBDE
:103E200001265FE02168890302D421684903F5E790
:103E3000E1686A686FF00F0321F0730103EB02126F
:103E400011430143E160206820F080602060FEF7AC
:103E5000E5F8074605E000BFFEF7E0F8C01B0228C2
:103E600037D820680001F7D4B8F1000F18D0B8F1A6
:103E7000010F1DD0287D4FF07E41400801EB4060CE
:103E8000A96840EA01202169194A114008432061CC
:103E9000206840F080602060FEF7C0F807461AE016
:103EA000A868297B000240EAC1602169114AECE759
:103EB000288A1149400801EB4050A96840EA0120D6
:103EC00021690E4AE1E700BFFEF7A8F8C01B0228EF
:103ED00001D9032606E020680001F5D52069A9690B
:103EE000084320613046BDE8F08100000010024028
:103EF000FF80FFF9FF80FF070000E0FFFF809FFFCA
:103F0000F8B51C4D06460024A86DC00002D5FEF78A
:103F1000A5FB0DE0A86D40F08050A865A86D00F0ED
:103F200080500090FEF79AFBA96D21F08051A965A1
:103F3000B0F5007F04D0802E07D94FF003040AE0CB
:103F4000802E08D9A02E01D804E001D1022402E07D
:103F5000702E00D101240848016821F00701214397
:103F60000160006800F00700A04201D00120F8BD08
:103F70000020F8BD0010024000200240010901EBC2
:103F8000810100F00F0000EB4100C0B2704700005B
:103F90002DE9F041044600680025C168490617D4A0
:103FA000691EC160FEF73AF806464FF47A78032797
:103FB00008E000BFFEF732F8801B404502D9032518
:103FC00084F821702068C068400601D4032DF1D127
:103FD0002846BDE8F08100002DE9F041064613486F
:103FE0000025016821F080010160041F20684FF066
:103FF0000307800607D43046FFF71AFA90B186F817
:10400000217003250EE0206820F02000206030465B
:10401000FFF70EFA10B186F821700325206840F0F2
:10402000200020602846BDE8F08100000C280040F8
:104030000148FFF71FB90000B80900202DE9F04141
:1040400007460B4815460E46007808B900F082FC7A
:10405000EFF31184202080F311882A463146384638
:1040600000F008F8E1B281F31188BDE8F0810000AA
:104070006C00002070B50E46144900EB400001EBC7
:10408000C0051446E86A183520B101280FD002286F
:1040900005D113E0284600F091FCA04201D2002493
:1040A00011E022463146284600F0B3FD0BE02846D9
:1040B00000F084FCA042F4D20446F2E731462846E0
:1040C00000F07AFD0446204670BD00006C00002020
:1040D0000FB408B504A900916A46039900F003F8EB
:1040E00001B05DF814FB2DE9F04198B0064607A831
:1040F000029040200025CDE90305CDE90556904604
:104100000C4614F8011B002973D0252908D002A8F9
:1041100000F033FD05980028F3DA18B0BDE8F0810F
:10412000002001212278232A1ED02B2A19D02D2AE3
:1041300002D0302A08D102E040F0010001E040F056
:104140000200641C0029EDD100222178A1F1300386
:104150000A2B0CD202EB820201EB4202303A641CC1
:10416000F3E740F00400ECE740F00800E9E7002343
:10417000CFB22E2F0BD114F8011FA1F130070A2F57
:1041800005D203EB830301EB4303303BF3E76C29D8
:104190000DD068290BD0702954D00BDC252916D0FE
:1041A000582931D063290CD0642913D114E014F8B4
:1041B000011FECE7732934D075291BD0782909D168
:1041C00022E0D8F80000011DC8F80010017802A80C
:1041D00000F0D3FC641C9DE7D8F800100F1DC8F850
:1041E00000700968CDE900200A2202A800F0F2FB65
:1041F000F0E733E0D8F800100F1DC8F80070096828
:10420000CDE900200A2208E0D8F800100F1DC8F8F8
:1042100000700968CDE90020102202A800F040FCDF
:10422000D8E7D8F80000011DC8F80010076817F893
:10423000011B0029CED002A800F09FFC05980028A1
:10424000F5DAC7E7D8F80000011DC8F800100168CA
:104250000820CDE9000503461022DEE70598002876
:104260007FF75BAF049820B1024607A93046FFF7FD
:10427000E5FEDDE90410084405904EE710B500F0B6
:1042800017F80120FDF7C2FD0021E32000F070F8CF
:10429000064C012084ED000AFDF7B8FD0021E52061
:1042A00000F066F884ED010A10BD00001400002043
:1042B0000EB501214FF47A7200208DE807000B46FD
:1042C000FE2280210348FEF715F8BDE80E400F20BE
:1042D000FDF79CBD6C09002020F0030000EE100AE1
:1042E0009FED041AF8EE400AB1EE080A10EE810ABA
:1042F000704700000C00FA3A10B520F0030000F0FF
:1043000001FF9FED081B53EC112B00F00FFF9FEDF9
:10431000071B53EC112B00F04DFE00F019FE00EED0
:10432000100A10BDD7A3703D0AF7653FCDCCCCCCA9
:10433000CC6C47C0F0B500231C4640F231160FE0AC
:10434000055D6B4008251F0602D586EA430300E0A1
:104350005B006D1EDBB215F0FF05F4D1641CE4B206
:104360008C42EDD3934201D00120F0BD0020F0BD7E
:104370007FB50C4605464FF6FF72022103A88DE873
:104380000700002601232A4681210F48FDF7FCFE85
:104390003246022103A8FFF7CDFF9DF80D009DF8DE
:1043A0000C10E32D00EB012080B209D0FFF794FF41
:1043B000002C04D0FCEEC00A10EE900A20807FBDD5
:1043C000FFF79AFFF4E700006C0900207047000037
:1043D00010B51048FEF796FE08B1FDF781F90120EF
:1043E000FEF744F90C491F2088610A480068C1683B
:1043F00001F0800161F49061C16000224AF217016E
:104400000448FEF7C5FE0120FEF742F9BDE8104062
:10441000FEF74CB9B80900200070004010B500212B
:104420000248FDF76FF90249486010BD6D4D000864
:1044300064000020FEF74EB800B597B044216846EE
:10444000FCF79CF8142111A8FCF798F84FF40070C1
:10445000FEF7D0F858BBFEF713F9174850F8901F35
:1044600021F0180101600620012100900802CDE929
:1044700002101020049002200A90CDE90B010A21BD
:104480000D910721CDE90E1010906846FEF784FBD0
:1044900068B90F20119003201290002013901490FF
:1044A0001590042111A8FEF771FA002801D0FDF73C
:1044B00017F917B000BD0000001002400248016863
:1044C00041F470010160704788ED00E070B502684A
:1044D000164B4FF08046984201D0B04203D122F0F3
:1044E00070044A682243124C124D984205D0B042E3
:1044F00003D0A04201D0A84203D122F44076CA687A
:1045000032434E6922F08002324302608A68C262FE
:104510000A688262984203D0A04201D0A84201D129
:10452000096901630121416170BD0000002C014057
:10453000004001400044014090F82410C90706D013
:1045400001684A68836A22F400321A434A6090F88C
:104550002410890706D501684A68C36A22F48032AC
:104560001A434A6090F82410490706D501684A6842
:10457000036B22F480221A434A6090F82410090742
:1045800006D501684A68436B22F400421A434A6028
:1045900090F82410C90606D501688A68836B22F456
:1045A00080521A438A6090F82410890606D5016863
:1045B0008A68C36B22F400521A438A6090F8241070
:1045C000490611D501684A68036C22F480121A4327
:1045D0004A60016CB1F5801F06D101684A68436CDE
:1045E00022F4C0021A434A6090F82410090606D546
:1045F00001684A68806C22F4002202434A607047D6
:10460000F8B500260446C0F88060FDF707FD0546B2
:10461000206800686FF07E47000708D52B4600220F
:104620004FF400112046009700F018F960B9206897
:10463000006840070AD52B4600224FF4800120462F
:10464000009700F00BF908B10320F8BD2020A06707
:10465000E067266684F874600020F8BD2DE9F0411B
:104660000446016880682269E36910436269002595
:104670001A431043714F0A68714B1A4002430A6093
:1046800020684168E26821F440511143416021688B
:10469000A069B94201D0226A10438A6822F43062CC
:1046A00002438A606749236867488B420DD1D0F87E
:1046B000880010F0030006D0012847D0022843D01C
:1046C000032830D144E001212EE060498B420BD118
:1046D000D0F8880010F00C0034D0042836D0082818
:1046E00032D00C281FD133E059498B420BD1D0F87E
:1046F000880010F0300025D0102827D0202823D0A3
:10470000302810D124E0BB420DD1D0F8880010F43D
:10471000406017D0B0F5806F18D0B0F5006F13D09F
:10472000B0F5406F14D010214A4A00264FF40040E3
:10473000BB422FD171B102290FD004290FD0082913
:1047400073D10FE00021EFE70221EDE70421EBE751
:104750000821E9E7FEF7AAF903E0104602E0FEF7B8
:10476000C9F9E8B3626802EB420181425DD8B0EB5F
:10477000023F5AD8010E0302500818187141002355
:10478000FBF780FD344AA0F5407191424DD8216875
:10479000C8604BE0E3694FF6EF77834228D10929DF
:1047A00043D2DFE801F005080B420D4242421000FF
:1047B000FEF77CF906E0FEF78BF903E0104602E015
:1047C000FEF798F960B14100606801EB5001B1FB60
:1047D000F0F0A0F11001B94227D84FF6F07100E0D7
:1047E00024E00140C0F3420001432068C1601DE0A5
:1047F00009291AD2DFE801F005080B190D1919195A
:104800001000FEF753F906E0FEF762F903E01046E8
:1048100002E0FEF76FF948B1616800EB5100B0FBB0
:10482000F1F0A0F11001B94205D9012566662846CC
:10483000A666BDE8F08180B2A9E7000000800040D4
:10484000F369FFEF003801400010024000440040CF
:10485000004800400024F400FFFC0F002DE9F04761
:104860009A4617460E4604464FF000094FF02008BE
:10487000089D4AE0681C48D0FDF7D0FBA0EB0A0079
:10488000A8422AD84DB32068016849073DD5C069C0
:10489000C043000539D421684FF4006008622068E5
:1048A00050E8001F21F4D07140E80012002AF6D130
:1048B0002068083050E8001F21F0010140E8001294
:1048C000002AF5D1C4F87880C4F87C80C4F88080D0
:1048D00084F874900320BDE8F087216851E8000F48
:1048E00020F4D07041E80002002AF6D12068083098
:1048F00050E8001F21F0010140E80012002AF5D124
:10490000C4F87880C4F87C80E2E72068C06936EAA1
:10491000000004D00020B842ACD00020DBE701202A
:10492000F9E7FEE710B500F0D5FAFFF777FD00F0E4
:10493000DDFA064C2068FCF73FFF05480068FCF7ED
:104940003BFF2068BDE81040FCF726BF5800002060
:104950006800002010B5124C02202061606111A097
:10496000A06104F17800E0614FF400602062002053
:10497000A06260620BA1A164E06204F67801E164C8
:104980001021A065C4E91410E06509A1E01DFBF742
:104990008CFD08A12046FBF788FD2020A07110BDEA
:1049A0006C0000205465726D696E616C000000003F
:1049B0005254540053454747455200000269C168AC
:1049C0008A4203D88068401A104400E0501A401E02
:1049D000704700002DE9FC5F0E008146DDE90C47C1
:1049E000C6F1000098469346824600D40846012549
:1049F00003E000BF90FBFBF06D1C5845FADAA845B8
:104A000000D9454624B1002E01DB780700D5641E8D
:104A1000B80702D5B8F1000F0FD0F8070DD164B177
:104A2000A5420AD220214846641E00F0A6F8D9F813
:104A30000C000028F3DA00F030B8D9F80C00002898
:104A4000F9DB002E02DA56462D2102E0780707D561
:104A50002B21484600F091F8D9F80C000028EADB39
:104A600007F0030002280FD1B8F1000F0CD15CB1A0
:104A7000A54209D230214846641E00F07EF8D9F8DC
:104A80000C000028F3DAD6E7CDE9004743465A4642
:104A90003146484600F004F8CDE73CBCBDE8C09F75
:104AA0002DE9F84F8246DDE90A4B012698469146EA
:104AB0000D460846374602E0B0FBF9F07F1C48453A
:104AC000FAD2B84500D947465FEACB7017D1B4B1E6
:104AD0005FEA8B7002D5B8F1000F02D02020009061
:104AE0000BE03020FBE75046641E009900F045F8CB
:104AF000DAF80C00002838DB0CB1A742F3D3DAF85F
:104B00000C00002831DB00BFB8F1010F02D9A8F179
:104B1000010803E0B5FBF6F0484502D306FB09F6B1
:104B2000F2E7DFF84C8000BFB5FBF6F000FB16554E
:104B300018F80010504600F020F8DAF80C000028B1
:104B400003DBB6FBF9F6002EEED15FEACB700CD09A
:104B5000002C0AD0A74208D220215046641E00F043
:104B60000CF8DAF80C000028F2DA00F003B80000C4
:104B7000F655000818BCBDE8E08F10B50446D4E92E
:104B80000130421C934205D323681954A260E068A7
:104B9000401CE060D4E90102824209D12168206909
:104BA000FFF74CFAA168884203D04FF0FF30E06075
:104BB00010BD0020A06010BD2DE9F047C468174665
:104BC000894606464FF000083069A04201D9051B0E
:104BD00002E0B168201A0D1AB0686D1E001BA842D1
:104BE00000D80546BD4200D33D4670682A462044A1
:104BF0004946FBF77EFCB0687F1B2C44A844A944BF
:104C0000A04200D10024F460002FDDD14046BDE871
:104C1000F0872DE9F04104468846D4E90207C51B18
:104C2000E168606816460844B54206D94146FBF77C
:104C300060FCB819E060BDE8F0812A464146FBF708
:104C400058FC761B08EB050132466068FBF751FC07
:104C5000E660F0E703B401984100009850EAC120F3
:104C600018BF04204A0D18BF40F0010040F2FF7247
:104C7000B2EB515F08BF40F00200012808BF0520D9
:104C800002B070470907090E002804DB00F1E0209C
:104C900080F80014704700F00F0000F1E02080F869
:104CA000141D704710B50168B1F5405F0DD01DDCD3
:104CB0000F48B1F5005F04D0B1F5045F16D1006A6A
:104CC00000E08069BDE810400047C068B0F5925F21
:104CD0000CD10120FDF7CAFC06491F208861012084
:104CE000FDF7D6FCBDE81040FDF7E0BC10BD0000AC
:104CF0001C0000200070004010B50368184AB3F58E
:104D0000005F21D01749B3F5045F19D0B3F5A24F66
:104D100024D1C2680846012A007819D00B2A1DD177
:104D200000281BD0012819D04868FCF725FD0E4C3F
:104D30002068FCF741FD2068BDE81040FCF72CBD61
:104D400002200870106B00E09069BDE81040004739
:104D5000022801D2401C00E00020087010BD0000B5
:104D60001C0000205C0000205800002030B40468C3
:104D70000346B4F5005F21D0114A1249B4F5045F2F
:104D8000526A087814D0B4F5405F17D0B4F5C04F1C
:104D900014D1DB68B3F5905F10D003F55F63B3F512
:104DA000005305D0102B09D1032803D2401C02E088
:104DB00030BC104700200870C0B2F9E730BC704723
:104DC0001C0000206400002030380A2801D2012095
:104DD00070470020704700214FF4205304E0022266
:104DE000521C9A42FCD3491C8142F8D37047000000
:104DF00090B0FDF777FBFFF71FFBFEF79FFEFEF776
:104E000047FFFEF7A5FFFEF75DFEFEF715FFFEF775
:104E10005BFFFEF781FF012208211F48FDF7F8F82C
:104E2000FFF780FD00221D491D48FEF75FFA0022B2
:104E30001C491B48FEF738FA18481BA14378027832
:104E40000020FFF745F9FDF7E9F8024619A1002017
:104E5000FFF73EF91A4C40F6B83700BFFFF70EFADD
:104E6000606800F04BFB05460E46206800F046FBEC
:104E700041EC100BCDE9005653EC102B11A102A808
:104E8000FBF778FA02A90020FFF722F93846FCF771
:104E9000BDFFFFF79DFAE1E7001C0048F408002081
:104EA000B80900200000002054494D453D25643AD2
:104EB00025640A0054494D453D25640A0000000060
:104EC00014000020543D252E32662C483D252E32FC
:104ED000660A000010B500210248FCF713FC0249E5
:104EE000086010BDA54C000858000020044810B50B
:104EF00001680448FCF706FC0349486010BD000047
:104F000058000020F94C00085C00002070477047F2
:104F100070477047704770477047704770477047D9
:104F20007047704710B500290AD00878002807D0CC
:104F300005487844FBF7DCFE002801D0002010BDB6
:104F40000248784410BD0000D2070000CA070000E4
:104F500021F00042A2F16052B2F5801F01F000433F
:104F600028BFD2F17F6C0BD95FEA001C43EAC20272
:104F700042EB507018BF704728BF20F00100704707
:104F8000B2F5801FBCBF184670474FEA410C1CF5B4
:104F9000001F02D2084600F027BB70B500F070F980
:104FA00000000089FFF7F6BF4FF00040A0F5800039
:104FB0007047000010B591EA030F48BF83F000432B
:104FC00000F1BA81841A71EB030C05D2121943EB7C
:104FD0000C03001B61EB0C01DFF824E14FEA1154D4
:104FE000A4EB135C1EEA430F18BF9EEA445F73D024
:104FF00023EA0E03DCF1200E21EA045143F480136E
:1050000032D322FA0CFE10EB0E0023FA0CFE41EB19
:105010000E01CCF1200E03FA0EFE10EB0E0051F142
:105020000001B1F5801FCCF1200E32D201EB04510A
:1050300012FA0EF2BDE8104058BF7047401C38BF4E
:105040005FEA420218BF7047002814BF20F0010039
:1050500041F100014FEA410313F5001F38BF7047CB
:10506000A1F1C04100F05AB9012A43EB0302ACF1AF
:10507000200CDCF11F0E32BF4FF0000E23FA0CF3B0
:1050800010EB030041EB0451B4EB115FD0D0A1EB66
:10509000045101F5801149085FEA300001EB045129
:1050A0000ED350F1000038BF12FA0EFE08D1BDE851
:1050B0001040C9E7401C38BF5FEA4202CAD1C3E7CB
:1050C000BDE810404FEA410313F5001F38BF704799
:1050D000A1F1C04100F022B99EEA445F08D011EA74
:1050E0005E0FBDE8104004BF01F000410020704792
:1050F000BDE8104070B500F0C3F800BF64FBBE3ED1
:105100000000E0FFB0FA80F310FA03F10AD0C3F117
:105110001D0303F580634FEA41504FEA035202EB4F
:10512000D12170474FF0000070470000DFF848C100
:1051300070B51CEA111E1EBF1CEA13159EEA0C0F67
:1051400095EA0C0F00F06F8081EA030423EA4C1308
:105150004EEAD47E21EA4C1141F4801143F48013CD
:10516000AE44A1FB024CA0FB0365AEF17F7E361975
:1051700055EB0C05A1FB034C4CF10003A0FB021CFA
:1051800016EB0C06654153F10003094218BF46F0C7
:10519000010613F4007F0BD14FEA03314FEA0530CB
:1051A000340341EA155140EA16506FF003020AE059
:1051B0004FEAC3214FEAC520F40241EA555140EAC3
:1051C00056506FF0020202EB2E4201EB025585EAC7
:1051D000CE710AD05FEA440C18BF24F0004450F1AD
:1051E000000041F1000120EAD47040F2FE7C6245EB
:1051F00000D270BDA84214BF4FF080444FF040442D
:10520000002E08BF0024BEF1806FA8BFA1F1C041ED
:10521000BDE8704080F282804FF0000001F1C04193
:1052200001F0004170479EEA0C0F0CEA131518BFFD
:1052300095EA0C0F06D04FF0000081EA030E0EF045
:10524000004170BD00F01CF88900013E00F007B875
:1052500000F009B84FEA430C5FEA5C5C08D081EAD1
:10526000030100F05BB84FEA410C5FEA5C5CF6D1E9
:105270004FF00000014970470000FF070000F87F71
:105280000EF1020E2EF0030E5EF8046B364205D4CA
:10529000012A43EB030515F5001F12D8012841EB45
:1052A000010C1CF5001F0CD80ED14FEAD17C15F56E
:1052B000001F0CEB4C0C0CF1020C08BF4CEBD37C28
:1052C00004E04FF0080C01E04FEAD37C0CEB4C05F6
:1052D00026FA05F606F00706B6F1040C06D20EEB28
:1052E000860CBDE870404CF0010C6047DFE80CF024
:1052F000090B02024FF000414FF00000A1F5002120
:1053000070BD19461046012851EB010418BFD4F5B1
:10531000001484BF002001F0004170BD0808A0F512
:1053200000114FEA3101704710B591EA030F48BFF1
:1053300083F000433FF546AE841A71EB030C07D2AD
:1053400012198CF0004C43EB0C03001B61EB0C01B9
:10535000DFF8A4E14FEA1154A4EB135C1EEA430FFB
:1053600018BF9EEA445F00F0B08023EA6E03524209
:1053700021EA0451C3EB6E0338BF5B1EDCF1200E43
:1053800025D322FA0CFE10EB0E0043FA0CFE41EB83
:105390000E01CCF1200E03FA0EFE10EB0E0051F1BF
:1053A0000001CCF1200E29D412FA0EF201EB0451C7
:1053B000BDE8104058BF7047401C1CBFB2F1004F01
:1053C000704700280CBF491C20F00100704712EB09
:1053D000020E43EB030218BF4FF0010E4EEA4202E9
:1053E000ACF1200CDCF11E0E54D943FA0CFE10EB8C
:1053F0000E0051F1FF31CCF11E0ED5D50EF1010E8C
:1054000012FA0EFE404141EB010101EB445C5FEA00
:105410005C5C10D910EBDE7001EB045138BFBEF1BB
:10542000004FBDE8104018BF704700280CBF491C52
:1054300020F00100704730D24FEAD42C11F5001152
:1054400024F400641BD0B1FA81F20B3AA41AA41E12
:10545000D2F12003914030FA03F31943904001EB5D
:10546000CC71002C01EB0451BDE81040A8BF70477F
:1054700001F1C0414FF0000001F000417047B0FA67
:1054800080F310FA03F100D110BDE41A173C48056F
:10549000C90AE4E701EB045110BD491001EB0451C6
:1054A000BDE810404FEA300002E04FF000017047C5
:1054B0004A0008BF0042F8D0B2F5001F28BF70476D
:1054C00001F000414FF0000070479EEA445F07D0B2
:1054D00011EA5E0FBDE8104004BF002100207047B4
:1054E000BDE8104070B5FFF7CBFE00BF40DFF63ED1
:1054F00083F00041104670470000E0FF43004FEA90
:10550000D30C4FEA3C0C43401FBF40070CF16051E5
:1055100013F0FE4F70471CF0006F03D100200CF019
:10552000004170470CF0004343EA507010B540EA68
:10553000CC0000F00EF800BF000000924FEA00011E
:10554000FFF7ECBE4FF000414FF00000A1F5002145
:1055500070470EF1020E2EF0030E5EF8044B24424B
:1055600004D44FEA4102B2F17F4F11D84FEA400311
:10557000B3F17F4F0CD80ED14FEAD07CB2F17F4F00
:105580000CEB4C0C0CF1020C08BF4CEBD17C04E092
:105590004FF0080C01E04FEAD17C0CEB4C0324FAED
:1055A00003F404F00704B4F1040C06D20EEB840CEF
:1055B000BDE810404CF0010C6047DFE80CF0070834
:1055C00002024FF00040A0F5800010BD08464200E6
:1055D00018BFD2F1807288BF00F0004010BD4FF0BC
:1055E0004070E1EE100A7047FF2141EAD050C0053B
:1055F0007047FBF7C6B83031323334353637383977
:105600004142434445460000000000000000000005
:105610000102030406070809A0860100400D0300EB
:10562000801A060000350C0040420F0080841E00E6
:1056300000093D0000127A000024F40000366E01DB
:105640000048E801006CDC020000000001020304D5
:1056500002400000000000A0000000000540000023
:10566000000000C8000000000C4000000000409C4A
:1056700000000000194000000020BCBE0000000037
:1056800034400000BFC91B8E00000004B54000007C
:10569000504BCFD06607E2CF010000006C41000004
:1056A0003E8251AADFEEA73401000000D94200007B
:1056B000DCB5A0E23A301F97FFFFFFFFB4450000C2
:1056C000FD25A0C8E9A3C14FFFFFFFFFFF3F00007A
:1056D0000000008000000000FF3F0000000000808C
:1056E0000000000020570008000000206C000000AF
:1056F000C80100088C5700086C000020D42E000060
:10570000E40100081C00000043000000F8FFFFFF58
:105710000C0000000E0000000F0000002E00000032
:105720000000000001000000100000000000000068
:1057300000093D00000000000000000015150008F1
:10574000234F0008194F0008214F00081B4F000885
:105750000D4F0008114F00080F4F00081D4F0008A3
:10576000134F0008154F0008174F00081F4F00087F
:105770000000000000000000000000000000000029
:0C5780000000000000000000000000001D
:040000050800018D61
:00000001FF
