:020000040800F2
:10000000302200202D0200083F250008752200083C
:100010003D250008230400081B2C000800000000F8
:100020000000000000000000000000008D27000814
:100030002504000800000000412500088F27000863
:10004000470200084702000847020008470200086C
:10005000470200084702000847020008470200085C
:10006000470200084702000847020008470200084C
:10007000470200084702000847020008470200083C
:10008000470200084702000847020008470200082C
:10009000470200084702000847020008470200081C
:1000A000470200084702000847020008470200080C
:1000B000470200080000000000000000470200089E
:1000C00047020008470200084702000847020008EC
:1000D00047020008470200084702000847020008DC
:1000E000470200084702000800000000000000006E
:1000F0000000000000000000000000000000000000
:10010000000000004702000800000000470200084D
:10011000000000000000000047020008470200083D
:10012000470200084702000847020008470200088B
:10013000470200080000000000000000000000006E
:1001400047020008470200084702000800000000BC
:10015000470200084702000847020008470200085B
:10016000470200084702000847020008000000009C
:1001700047020008470200080000000000000000DD
:1001800047020008470200084702000800F002F892
:1001900000F03CF80AA090E8000C82448344AAF1E5
:1001A0000107DA4501D100F031F8AFF2090EBAE8E3
:1001B0000F0013F0010F18BFFB1A43F0010318479B
:1001C00078B6010098B60100103A24BF78C878C10B
:1001D000FAD8520724BF30C830C144BF04680C604D
:1001E000704700000023002400250026103A28BF95
:1001F00078C1FBD8520728BF30C148BF0B60704799
:100200001FB502F0B7FD1FBD10B510BD00F0CFF84F
:100210001146FFF7F5FF02F01DFD00F0EDF803B405
:10022000FFF7F2FF03BC00F0F5F800000948804733
:1002300009480047FEE7FEE7FEE7FEE7FEE7FEE7C8
:10024000FEE7FEE7FEE7FEE704480549054A064BE0
:1002500070470000212800088D01000830020020AE
:1002600030220020301200203012002053EA020C0D
:1002700000F069802DE9F04B4FF00006002B1FBF06
:10028000B3FA83F503FA05F424FA05F65E4012BFCB
:100290001643B2FA82F502FA05F4C5F120051EBF35
:1002A00022FA05FC44EA0C04203556EA044C4FEAD5
:1002B000144418BF641C4FF000084FF0000990422E
:1002C00071EB030C39D3002919BFB1FA81F701FA98
:1002D00007F6B0FA80F700FA07F6C7F120071EBF4D
:1002E00020FA07FC46EA0C062037B6FBF4FCA7EB25
:1002F0000507103F07F01F0BCBF120060CFA0BFB94
:100300002CFA06F644BFB3460026202FA4BF5E4653
:100310004FF0000B5BEA060C08BF4FF0010B19EB26
:100320000B09ABFB027C48EB0608C01B06FB02CCAA
:100330000BFB03CC71EB0C01C1E70B4602464146B7
:100340004846BDE8F08B13B54FF000004FF00001B8
:10035000AFF30080BDE81C4070474FF0000200B5CD
:10036000134694469646203922BFA0E80C50A0E8D8
:100370000C50B1F12001BFF4F7AF090728BFA0E886
:100380000C5048BF0CC05DF804EB890028BF40F852
:10039000042B08BF704748BF20F8022B11F0804F94
:1003A00018BF00F8012B70477047704770477546BB
:1003B00000F02CF8AE4605006946534620F00700D1
:1003C000854618B020B5FFF73FFFBDE820404FF04D
:1003D00000064FF000074FF000084FF0000B21F02F
:1003E0000701AC46ACE8C009ACE8C009ACE8C009FC
:1003F000ACE8C0098D46704710B50446AFF30080E5
:100400002046BDE81040FFF70ABF000000487047D3
:10041000CC01002001491820ABBEFEE726000200F7
:100420007047FEE770472DE9F04107460C4624204F
:1004300000F030FA002643F69825387800F04AFAA2
:10044000761C7F1CAE42F8D3262000F023FA00264B
:10045000207800F03FFA641C761CAE42F8D3BDE869
:10046000F04100F0AFB910B5102000F013FA0120F0
:1004700000F030FABDE81040642002F0DFBB2DE947
:10048000F05FC5080B989A4605EBD000A0F1010972
:100490000A9816460844401E4FEA102B00F0FF0849
:1004A0000F0ACCB2442000F0F5F9E8B200F012FADD
:1004B00009F0FF0000F00EFA452000F0EBF92046AD
:1004C00000F008FAF8B200F005FA404600F002FA2F
:1004D0000BF0FF0000F0FEF94E2000F0DBF9E8B26F
:1004E00000F0F8F94F2000F0D5F9204600F0F2F9BD
:1004F000F8B200F0EFF9BAF1010F03D0BAF1020F30
:1005000002D004E0242000E0262000F0C3F9DDE959
:100510000A500024454304E0307800F0DBF9641C05
:10052000761CB4EBD50FF7D300F002B800F04AB94F
:1005300030BCBDE8C05FFFF7F9BF00002DE9F84F00
:10054000C708DDE90E9007EBD000401E00269A4652
:1005500090460C460090FF2901D9260ACCB201EB47
:1005600009056D1E4FF0000BFF2D02D94FEA152B28
:10057000EDB2442000F08EF9F8B200F0ABF900982B
:10058000C0B200F0A7F9452000F084F9E0B200F015
:10059000A1F9F0B200F09EF9E8B200F09BF90BF07F
:1005A000FF0000F097F94E2000F074F9F8B200F067
:1005B00091F94F2000F06EF9E0B200F08BF9F0B243
:1005C00000F088F9242000F065F90F98002409FB59
:1005D00000F506E098F8000000F07CF908F1010849
:1005E000641CB4EBD50FF5D3262000F053F900249A
:1005F00007E000BF9AF8000000F06CF90AF1010A68
:10060000641CB4EBD50FF5D30A980B9CC7080F9860
:100610004FF0000807EBD000A0F1010BFF2C02D92E
:100620004FEA1428E4B20B984FF0000A00EB0906D9
:10063000761EFF2E02D94FEA162AF6B2442000F0A9
:1006400029F9F8B200F046F90BF0FF0000F042F98A
:10065000452000F01FF9E0B200F03CF908F0FF007F
:1006600000F038F9F0B200F035F90AF0FF0000F0C0
:1006700031F94E2000F00EF9F8B200F02BF94F20BE
:1006800000F008F9E0B200F025F908F0FF0000F0F2
:1006900021F9242000F0FEF8002407E00C980078EF
:1006A00000F018F90C98401C641C0C90B4EBD50FAA
:1006B000F4D3262000F0EEF8002407E00D9800782F
:1006C00000F008F90D98401C641C0D90B4EBD50F98
:1006D000F4D300F002B800F075B818BCBDE8E04FE4
:1006E000FFF7F9BF10B5364C00221021204600F06C
:1006F0002FFD642002F0A2FA01221021204600F012
:1007000027FD642002F09AFA00F08EF8122000F023
:10071000C1F800F089F8012000F0BCF82B2000F0AF
:10072000D9F8012000F0D6F8002000F0D3F811200D
:1007300000F0B0F8032000F0CDF8442000F0AAF853
:10074000002000F0C7F8312000F0C4F8452000F088
:10075000A1F8002000F0BEF8002000F0BBF82B202C
:1007600000F0B8F8012000F0B5F83C2000F092F855
:10077000012000F0AFF8182000F08CF8802000F085
:10078000A9F8222000F086F8B12000F0A3F820207C
:1007900000F080F800F048F84E2000F07BF80020D0
:1007A00000F098F84F2000F075F8002000F092F863
:1007B000002000F08FF8BDE8104000F035B80000D0
:1007C0000004004810B5222000F064F8C72000F0B3
:1007D00081F8202000F05EF8BDE8104000F024B859
:1007E00070B5242000F056F800254FF496760024CA
:1007F000FF2000F06FF8641C322CF9D36D1CB54259
:10080000F5D3262000F046F800240025002000F053
:1008100061F86D1C322DF9D3641CB442F5D3BDE8E8
:100820007040FFF7CFBF000010B5044C20212046D8
:1008300000F089FC0028F9D110BD00000004004838
:100840002DE9F04104464FF480564FF090470022C6
:100850003146384600F07CFC00254FF40068200645
:1008600001D5012200E000224146384600F070FC2C
:1008700001223146384600F06BFC002231463846F2
:1008800000F066FC60066D1C040EEDB2082DE6D388
:10089000BDE8F08170B505464FF09044012210216B
:1008A000204600F055FC00221021204600F050FCAC
:1008B00000220821064800F04BFC2846FFF7C0FF45
:1008C0002046BDE870400122102100F041BC00002C
:1008D0000004004870B505464FF0904401221021F5
:1008E000204600F035FC00221021204600F030FCAC
:1008F00001220821064800F02BFC2846FFF7A0FF44
:100900002046BDE870400122102100F021BC00000B
:100910000004004872B6FEE72DE9F84F00270446B0
:10092000009790F85000DFF8B0930D46B8460128C4
:1009300011D0012684F85060206801F0A6FC60B157
:10094000606D40F0200060655FF0010784F8508022
:10095000384600F0D7B90220FBE769680C2005296A
:1009600012D8022907D0032907D0042907D0052966
:1009700007D0062107E0686006E0122103E0182195
:1009800001E04FF480716960D5E90021236800EA35
:1009900091101844036B01F01F014FF01F0C0CFA6B
:1009A00001FCC2F3846223EA0C038A40134303630D
:1009B000206801F06AFC8246206801F062FC5AEA75
:1009C00000001DD1AA682968206801F062FC206837
:1009D0006969C268C2F3C102520091402A69042ABF
:1009E0000FD000EB82002B68026EDFF8F0C203F03C
:1009F000F84302EA0C020B431A4342F0004101663D
:100A000072E0002101F037FC400320684FF0000144
:100A100072D001F030FC90FAA0F0B0FA80F12868B2
:100A200042036ED090FAA0F0B0FA80F0814204D177
:100A300000221146206801F03BFC0121206801F0F2
:100A40001AFC400320684FF001015DD001F013FC57
:100A500090FAA0F0B0FA80F12868420359D090FAD9
:100A6000A0F0B0FA80F0814204D100220121206878
:100A700001F01EFC0221206801F0FDFB400320680C
:100A80004FF0020148D001F0F6FB90FAA0F0B0FA66
:100A900080F12868420344D090FAA0F0B0FA80F0C8
:100AA000814204D100220221206801F001FC0321CF
:100AB000206801F0E0FB400320684FF0030133D0D1
:100AC00001F0D9FB90FAA0F0B0FA80F12868420357
:100AD0002FD090FAA0F0B0FA80F0814204D1002229
:100AE0000321206801F0E4FB2068816811F0010F08
:100AF00022D0ACE000E004E001F0BDFBC0F3846173
:100B00008DE7C0F3846091E701F0B5FBC0F3846129
:100B1000A2E7C0F38460A6E701F0ADFBC0F38461F7
:100B2000B7E7C0F38460BBE701F0A5FBC0F38461C5
:100B3000CCE7C0F38460D0E72A7B296850F8B03F47
:100B4000C1F3120C23EA0C0302F0180C644A22FAD7
:100B50000CF20A4013430360E968494577D12868DD
:100B600041031CD090FAA0F1B1FA81F1491C01F0C7
:100B70001F0109294FEA403132D8002912D000BFA5
:100B800090FAA0F1B1FA81F101F1010101F01F0128
:100B900006FA01F609D100BFC0F3846109E0C0F391
:100BA0008461E3E7C0F38461EEE790FAA0F1B1FA63
:100BB00081F101F1010101F01F0146EA816102D1D9
:100BC000C0F3846003E090FAA0F0B0FA80F000F186
:100BD000010000F01F0000EB400041EA005132E04C
:100BE00000290ED090FAA0F1B1FA81F101F10101D2
:100BF00001F01F0106FA01F606D100BFC0F38461BF
:100C000006E0C0F38461F1E790FAA0F1B1FA81F156
:100C100001F1010101F01F0146EA816102D1C0F337
:100C2000846003E090FAA0F0B0FA80F000F10100D7
:100C300000F01F002B4A00EB400002EB005041EA9D
:100C4000000141F00071AA68206801F022FB2648EB
:100C50002A6802423FF47AAE24488168244D254B2D
:100C600001F0E071AA421BD10D0219D422689A4208
:100C70007FF46CAE826841F4000122F0E0720A4316
:100C800082601D481D490068B0FBF1F0401C00EB7C
:100C90004000800000E0401E00900028FBD155E697
:100CA000174DAA4207D1CD0105D422689A42F6D148
:100CB00041F080710AE06FF00045EA42EFD14A024C
:100CC000EDD422689A42EAD141F48001826822F090
:100CD000E0720A43826039E600007F4000F0FF03C3
:100CE000FFFF0700000020FE000008800003045002
:100CF000000052C7000004500C000020400D03000B
:100D0000000084CB18BCBDE8E08F0000F8B54FF0C0
:100D1000000504002E46009502D0606D10B107E07A
:100D20000120F8BD204600F0C9F8A66584F850609F
:100D300020688168C1F3407119B18168574A114038
:100D4000816020688168C1F3007189B98168544A63
:100D5000114041F080518160524853490068B0FB16
:100D6000F1F04000801C00E0401E00900028FBD104
:100D700020688168C1F3007141B9616D41F01001D3
:100D80006165A16D41F00101A165012501F07DFAC8
:100D9000616DC90600D430B1606D40F0100060652F
:100DA00001252846F8BD606D20F4807040F00200F7
:100DB00060652068806810F0010F0BD13B488068A7
:100DC00010F0010F06D13A486168826822F47C1263
:100DD0000A438260E168606B627E0843A16841EA71
:100DE0004231084394F8201040EA0140012904D11F
:100DF000A18C304A02EB41410843A16A29B101F4B8
:100E00007071E26A014342EA01002168CA682A4B14
:100E10001A400243CA60206801F037FA064620688B
:100E200001F02FFA304315D1207E94F83010800362
:100E300040EA41002168CA6844F202039A4302432F
:100E4000CA6094F8380001280CD02068016921F0AC
:100E500001010161206901282068016B21F00F0167
:100E600011D013E0D4E90F010843D4E91112114362
:100E7000084321680A6940F2FC739A43104340F02A
:100E800001000861E6E7E269521E11430163606DEB
:100E900020F0020040F00100606582E7C0FFFF5FC4
:100EA000C0FFFF7F0C000020400D03000000045035
:100EB000000304500000FEFF07C0F0FF10B59EB015
:100EC0000446142117A8FFF748FA5C216846FFF78B
:100ED00044FA1C492068884231D14FF48040009088
:100EE0008003149002240120CDE9014008200390E2
:100EF0000720CDE904048801CDE90640684600F0EA
:100F0000E9FA08B1FFF706FD0F48C16C41F4005142
:100F1000C164C16C01F400511C91C16C41F001012C
:100F2000C164C06C17A900F001001C900B20CDE932
:100F30001740002019904FF0904000F019F81EB0B3
:100F400010BD0000000004500010024070B50446BF
:100F500000F004F90546601C02D0044800780444FF
:100F600000F0FCF8401BA042FAD370BD0000002046
:100F70002DE9F04FDFF8AC9100230325A9F1040B14
:100F800085B04FF0010C0F2709F1040AABF1040EF4
:100F9000BFE000BF0CFA03F6324075D00C7904F0C4
:100FA0000304012C01D0022C1BD1846800945C0046
:100FB00005FA04F80494009C24EA08040094D1F88B
:100FC0000C80049C08FA04F8009C48EA0408C0F865
:100FD00008804468B4430E79C6F300169E40264349
:100FE00046600C79E443A4070AD0C4684FEA43087A
:100FF00005FA08F6B4438E6806FA08F62643C6607A
:101000000C7904F00304022C10D1DC0800EB8404FA
:101010000294246A5E074FEAD66807FA08F6B443DA
:101020000E6906FA08F62643029C266204684FEA17
:10103000430805FA08F6B4430E7906F0030606FAEB
:1010400008F6264306604C6814F4403F60D0364CE6
:10105000266E46F001062666246E23F0030604F091
:1010600001040094314C34440294A4689E074FEA72
:10107000167807FA08F6B443B0F1904F05D02C4E1D
:10108000B04204D1012612E042E000260FE0294ED2
:10109000B04201D102260AE0274EB04201D1032618
:1010A00005E0264EB04201D1042600E0072606FAEC
:1010B00008F62643029CA660D9F800604C46D1F899
:1010C000048096435FEAC82800D516432660DAF804
:1010D00000405646D1F8048094435FEA882800D542
:1010E00014433460DBF800405E46D1F8048094433A
:1010F0005FEA883800D514433460DEF80040764655
:10110000D1F8048094435FEAC83800D514433460B2
:101110005B1C0A6832FA03F47FF43CAF05B000F0C0
:101120000FB8000008040140001002400000014018
:101130000004004800080048000C00480010004867
:1011400030BCBDE8C08F0069084000D00120704766
:101150000AB1816170478162704700000148806870
:10116000704700000000002090F84120202A24D180
:1011700090F84020012A20D0012280F8402024222B
:1011800080F841200268136823F0010313600268AD
:10119000136823F480531360026813680B431360D1
:1011A00001680A6842F001020A60202180F84110BB
:1011B000002180F84010084670470220704790F8E0
:1011C0004120202A22D190F84020012A1ED001225D
:1011D00080F84020242280F841200268136823F020
:1011E000010313600268136823F4706343EA01216A
:1011F000116001680A6842F001020A60202180F84B
:101200004110002180F840100846704702207047C6
:1012100070B5040004D094F84100002510B106E038
:10122000012070BD84F84050204600F04DF8242085
:1012300084F841002068016821F0010101606068C4
:10124000216820F0706008612068816821F4004105
:101250008160E0680128A06807D040F4044021685C
:101260008860E068022803D006E040F40040F6E71A
:1012700021684FF40060486020684168114A1143BA
:1012800041602068C16821F40041C160D4E90401D3
:101290000843A16940EA01202168C860D4E9070138
:1012A0000843216808602068016841F0010101607D
:1012B0006564202084F84100256384F842500020B2
:1012C00070BD00000080000230B59DB004461421BE
:1012D00017A8FFF742F85C216846FFF73EF8174968
:1012E0002068884227D14020002500900C95684650
:1012F00000F0F0F808B1FFF70DFB114CE06C40F086
:101300000200E064E06C17A900F002001C90C0200D
:1013100017901220CDE9180503201A9004201B9085
:101320000848FFF725FEA06D40F40010A065A06DF1
:1013300000F400101C901DB030BD000000540040AF
:1013400000100240000400480248816802781144FD
:10135000816070470000002010B50024032000F0D9
:1013600063F80F2000F008F808B1012401E000F054
:1013700025F8204610BD000070B50E4E054600242D
:10138000307898B14FF47A71B1FBF0F00A490968EE
:10139000B1FBF0F000F0E6FE40B9102D06D20022BD
:1013A0002946501E00F020F8756000E00124204618
:1013B00070BD0000000000200C000020094808B5A6
:1013C000016E41F001010166016E01F00101009121
:1013D000816D41F080518165806D00F080500090FA
:1013E00008BD000000100240F0B40E4B1B680C4614
:1013F000C3F30223C3F10705042D00D90425191DE9
:10140000072901D2002300E0DB1E012606FA05F1C0
:10141000491E214099409E40761E16403143F0BC43
:1014200001F0FCBB0CED00E0064900F00702086883
:101430004FF6FF03184040EA0220034A10430860B9
:10144000704700000CED00E00000FA051649B0F509
:10145000007F0868C0F3412009D0022805D0086841
:1014600020F4C06040F480600860002070470128CC
:10147000FBD0086820F4C06040F4007008600B489E
:101480003222006850430A4AB0FBF2F0401C00E0F0
:10149000401E4A69520501D50028F9D14869400526
:1014A000E3D5032070470000007000400C000020CE
:1014B00040420F000248006800F4C060704700001E
:1014C000007000400248016841F48071016070477B
:1014D000007000402DE9F84F044600270088A84D11
:1014E0003E46000515D5606C60B1B0F5000F04D024
:1014F000B0F5400F2BD001270AE0E86840F48030B7
:10150000E86024E00021201D01F01CF807001ED037
:101510003E46206880033AD5A86D4FF00008C00011
:1015200009D4A86D40F08050A865A86D4FF001085F
:1015300000F080500090DFF84CA2DAF8001041F47F
:101540008071CAF80010FFF709FE814610E0D5F857
:101550008800616C20F440000843C5F88800D8E793
:10156000FFF7FCFDA0EB0900022801D9032705E0E5
:10157000DAF80000C005F3D5002F7DD04FEA07064A
:10158000B8F1000F03D0A86D20F08050A865207836
:10159000C00707D0D5F88800216A20F0030008436F
:1015A000C5F888002078800707D5D5F88800616ADB
:1015B00020F00C000843C5F888002078400707D5C4
:1015C000D5F88800A16A20F030000843C5F88800EB
:1015D0002078800607D5D5F88800E16A20F44060BD
:1015E0000843C5F888002088800507D5D5F888000D
:1015F000E16B20F440200843C5F8880020884005AE
:1016000007D5D5F88800216C20F440100843C5F8B0
:1016100088002078400607D5D5F88800216B20F493
:1016200040500843C5F888002078000607D5D5F853
:101630008800616B20F440400843C5F8880020888A
:10164000C00507D5D5F88800A16B20F440300843C9
:10165000C5F8880020684FF0006700034FF08068ED
:1016600050D5D5F88800A16C20F040600843C5F83B
:101670008800A06CB84200E005E03BD1E86840F487
:101680008010E8603EE0D5F8900010F4407014D06F
:10169000A16D814211D0D5F89000D5F8901020F4BA
:1016A000407041F48031C5F89010D5F8901021F4C5
:1016B0008031C5F89010C5F89000C00711D0FFF731
:1016C0004DFD074641F2883907E000BFFFF746FDB0
:1016D000C11B494501D9032652E7D5F89000800780
:1016E000F4D5D5F89000A16D20F440700843C5F8FA
:1016F000900045E7404505D10121201D00F022FF63
:1017000000B106462068400317D5D5F88800E16C83
:1017100020F040600843C5F88800E06CB84204D16E
:10172000E86840F48010E86007E0404505D10121F9
:10173000201D00F007FF00B106462088400411D5A7
:10174000D5F88800216D20F040500843C5F8880086
:10175000206DB0F1805F05D10221201D00F0F2FE66
:1017600000B106462088000406D555F8880F616D43
:1017700020F0804008432860304600F005B80000A3
:10178000001002400070004018BCBDE8E08F00006F
:101790002DE9F0470F46050058D0404E306800F064
:1017A0000700B84209D2306820F0070038433060A3
:1017B000306800F00700B84248D12878384CC0079C
:1017C0002CD06868032811D0022812D0216898B163
:1017D000490500293ADAA16821F003010143A1601B
:1017E000FFF7BCFC804641F2883910E0216889018E
:1017F000EFE721688903ECE78907EAE7FFF7AEFC2A
:10180000A0EB0801494502D90320BDE8F087A06894
:10181000696800F00C00B0EB810FEFD128788007E9
:1018200005D5A068A96820F0F0000843A0603068E2
:1018300000F00700B8420BD9306820F007003843A9
:101840003060306800F00700B84201D00120DCE7CA
:101850002878400705D5A068E96820F4E0600843CF
:10186000A0602878000706D5A068296920F4605098
:1018700040EAC100A06000F03FF8A168094AC1F346
:101880000311515C01F01F01C84007490860074877
:101890000068BDE8F047FFF76FBD00000020024080
:1018A00000100240F0B701080C00002004000020E6
:1018B0000548064900688968054AC1F30221515C60
:1018C00001F01F01C84070470C00002000100240CA
:1018D00030B801080548064900688968054AC1F31F
:1018E000C221515C01F01F01C84070470C0000206C
:1018F0000010024030B8010870B525490023184691
:101900008A68CC6812F00C0204F00306214C4FEAFE
:10191000640509D00C2A05D0042A32D0082A00D147
:10192000284670BD012E10D10B681B0704D4D1F8D6
:101930009430C3F3032302E00B68C3F30313164E82
:1019400056F82330DAB10C2AEBD1C86800F0030056
:10195000022818D0032818D01846CA68CB68C2F3EA
:101960000212C3F306234343521CB3FBF2F2C868CE
:10197000C0F34160401C4000B2FBF0F070BD18465F
:1019800070BD204670BD2046E7E72846E5E7000029
:10199000001002400024F40000B801082DE9F843CB
:1019A00004006FD0FE4DA86800F00C06E86800F057
:1019B00003072078C00664D576B10C2E01D1012F23
:1019C0000AD0A069002828687AD040F00100286079
:1019D000FFF7C4FB80465DE02868800702D5A06958
:1019E0000028DED0216A2868000703D5286800F0A7
:1019F000F00004E0D5F89400F02202EA10108142D1
:101A000016D9084600F034FE00283BD1286840F083
:101A1000080028602868216A20F0F0000843286048
:101A20006868E16920F47F4040EA0120686016E0C0
:101A3000286840F0080028602868216A20F0F0003B
:101A4000084328606868E16920F47F4040EA01208B
:101A5000686026B9206A00F00BFE0028D5D1FFF798
:101A60004BFFA968CF4AC1F30311515C01F01F017C
:101A7000C840CD490860CD480068FFF77DFC0028CC
:101A80007ED12EE0CAE000BFFFF768FBA0EB0800A4
:101A9000022876D828688007F6D5286840F0080024
:101AA00028602868216A20F0F000084328606868F0
:101AB000E16920F47F4040EA0120686011E0FFE71F
:101AC00020F001002860FFF749FB804606E000BFD8
:101AD000FFF744FBA0EB08000228DAD8286880074B
:101AE000F6D42078C00740D0082E18D00C2E01D193
:101AF000032F14D06068B0F5803F17D0B0F5A02F49
:101B0000286817D020F480302860286820F48020CE
:101B100028606068E0B1FFF721FB804614E0286888
:101B2000800322D56068002878D01EE0286840F441
:101B30008030EDE740F480202860F7E7FFF70EFBE8
:101B4000A0EB08006428A4D828688003F6D50CE030
:101B5000FFF704FB804605E0FFF700FBA0EB080061
:101B6000642896D828688003F6D4207880073BD56F
:101B7000042E11D00C2E01D1022F0DD0E06801E00F
:101B8000B6E1FFE0002828681ED040F4807028608D
:101B9000FFF7E4FA07460CE0286840050CD5E0683A
:101BA0000028C1D008E000BFFFF7D8FAC01B022808
:101BB00093D828684005F7D56868217C20F0F85054
:101BC00040EA016068600FE020F480702860FFF751
:101BD000C5FA074605E000BFFFF7C0FAC01B0228A0
:101BE000B1D828684005F7D42078000729D5606966
:101BF0000028D5F8940012D040F00100C5F89400F8
:101C0000FFF7ACFA074604E0FFF7A8FAC01B02286A
:101C100099D8D5F894008007F6D512E02BE120F092
:101C20000100C5F89400FFF799FA074605E000BFE8
:101C3000FFF794FAC01B022885D8D5F894008007D6
:101C4000F6D42078400766D5A86D0027C00008D4D8
:101C5000A86D40F08050A865A86D012700F0805065
:101C6000009053480168C90512D40168814641F4C7
:101C700080710160FFF772FA804605E0FFF76EFAA7
:101C8000A0EB080002287DD8D9F80000C005F5D5E2
:101C9000A068012816D00528D5F8900017D020F0AC
:101CA0000100C5F89000D5F8900020F0040000BFB6
:101CB000C5F89000A06841F28839C0B1FFF74EFA2C
:101CC00080460FE0D5F8900040F00100F0E740F0CA
:101CD0000400C5F89000F5E7FFF740FAA0EB080113
:101CE00049454FD8D5F890008007F5D50EE0FFF7AD
:101CF00035FA804606E000BFFFF730FAA0EB080196
:101D000049453FD8D5F890008007F5D41FB1A86D9C
:101D100020F08050A8652078800628D5606A0028C9
:101D2000D5F8980012D040F00100C5F89800FFF7F0
:101D300015FA074605E000BFFFF710FAC01B02289E
:101D400020D8D5F898008007F6D510E020F00100E3
:101D5000C5F89800FFF702FA074604E0FFF7FEF91E
:101D6000C01B02280ED8D5F898008007F6D4A06AC8
:101D7000A8B1022824D00C2E7DD0286820F08070D5
:101D8000286000E0B3E02868000103D4E86820F090
:101D90000300E860E86807490840E8600CE09FE05D
:101DA00000100240F0B701080C00002004000020E1
:101DB00000700040FFFFEEFEFFF7D0F9044699E007
:101DC000E868E26A00F00301914226D1216B00F03D
:101DD00070020901103991421FD1626B00F4FE417B
:101DE000B1EB022F19D194F8382000F07841B1EB13
:101DF000C26F12D1A18F00F4C00249084905A1F5B4
:101E00000011914209D194F8401000F0C0604908D7
:101E10004906A1F1007181424BD00C2E6FD0286889
:101E200040016CD4286820F080702860FFF796F994
:101E3000064604E0FFF792F9801B022857D828686D
:101E40008001F7D4F4E90B016FF00F0202EB0111EE
:101E50000843218A5204490802EB4151A26841EA31
:101E600002210843217D4FF07E42490802EB416187
:101E70000843217B00E042E040EAC160E968214A72
:101E800011400843E860286840F080702860E868E6
:101E900040F08070E860FFF761F9044605E000BF9C
:101EA000FFF75CF9001B022821D828688001F7D5CC
:101EB00023E02868800120D4286840F080702860E2
:101EC000E86840F08070E860FFF748F9044604E0F5
:101ED000FFF744F9001B022809D828688001F7D5CC
:101EE0000BE000BFFFF73AF9001B022802D90320DC
:101EF000BDE8F88328688001F4D40020F8E70120C9
:101F0000F6E700008C809D0110B504004FF0010041
:101F100044D094F8210028B9002084F820002046FD
:101F200000F040F8022084F821002168CA204862AD
:101F3000216853204862204600F0D8FB00282DD1AC
:101F400020688168164A114081602168886862684B
:101F5000A369104322691A43104388602168E0682E
:101F6000086120680169228941EA02410161204635
:101F700000F0E0FB002811D12168CA6C22F00302B6
:101F8000CA646269E16911432268D36C1943D16460
:101F90002268FF215162012184F8211010BD000048
:101FA000BFFF8FFF10B598B004465C216846FEF76E
:101FB000D4F90B492068884210D14FF400300090CA
:101FC000401216906846FFF785FA08B1FEF7A2FCAA
:101FD000044850F8901F41F40041016018B010BD52
:101FE000002800400010024070B504460068C16837
:101FF00021F0A001C160FFF7B1F805464FF47A76F1
:1020000007E000BFFFF7AAF8401BB04201D9032048
:1020100070BD2068C0688006F4D5002070BD70B522
:10202000040009D0606A002540B125616561A562A0
:1020300094F85D0040B10CE0012070BD6068B0F51F
:10204000827FF4D0E561F2E784F85C50204600F02E
:1020500057F8022084F85D002068016821F04001F3
:102060000160E1684FF4E062914201D9002001E093
:102070004FF48050B1F5706F02D0914200D0A5624C
:10208000A188228901F4827102F404421143227C66
:1020900002F002021143227D02F001021143228B61
:1020A00002F400721143227F02F03802114394F8C7
:1020B000202002F080021143228D02F400521143CD
:1020C00022681160A169042202EA114194F82420D7
:1020D00000F4805002F01002114394F8342002F012
:1020E00008021143A28902F470621143014320687F
:1020F00041602566012084F85D00002070BD00006D
:1021000010B586B0044614216846FEF726F9134937
:10211000206888421FD11248016E41F48051016647
:10212000016E01F480510591C16C41F00101C1645F
:10213000C06C694600F001000590E020009002208C
:1021400001900020029003200390052004904FF09E
:102150009040FEF70DFF06B010BD000000300140BA
:102160000010024010B5401EB0F1807F01D3012065
:1021700010BD4FF0E02460610F21601700F04EFDAC
:102180000020A06107202061002010BD10B50400D0
:1021900002D0A06F10B107E0012010BD002084F82C
:1021A0007400204600F026F82420A067206801680B
:1021B00021F001010160204600F0CCFB0128ECD0A9
:1021C000606A10B1204600F033FB2068416821F4BA
:1021D000904141602068816821F02A018160206877
:1021E000016841F0010101602046BDE8104000F0A7
:1021F00083BB000010B59EB00446142117A8FEF75B
:10220000ACF85C216846FEF7A8F8184920688842B7
:1022100029D101200024009008946846FFF75AF95C
:1022200008B1FEF777FB1248016E41F48041016668
:10223000016E01F480411C91C16C41F00101C16447
:10224000C06C17A900F001001C904FF4C0601790FB
:102250000220CDE9180403201A9007201B904FF0AC
:102260009040FEF785FE1EB010BD00000038014012
:1022700000100240FEE700EB8100006E00F0F84025
:1022800070478068C0F3C00070478068C0F380006A
:102290007047042303EAD15310B518444369C1F3CE
:1022A000045107248C40A3438A401343436110BD6B
:1022B00000EB8100016E21F000411143016670477F
:1022C00030B587B018216846FEF747F81848174917
:1022D0000024C0E9001484600425C460C0E90445FA
:1022E000047644760121C16180F820408462C46292
:1022F00080F83040446380F83840FEF707FD08B1AD
:10230000FEF708FB0B4800900620CDE901047F2072
:102310000594CDE9030569460548FEF7FDFA002856
:1023200001D0FEF7F7FA07B030BD000000000450FE
:1023300010000020400020192DE9F04186B0142142
:102340006846FEF70AF83348C16C41F00401C164E5
:10235000C16C01F004010591C16C41F00101C1643F
:10236000C16C01F001010591C16C41F00201C16431
:10237000C16C01F002010591C16C41F08001C164A2
:10238000C06C49F6101500F080004FF090460590A3
:10239000002229463046FEF7DBFE1F4F002218219F
:1023A0003846FEF7D5FEDFF874800022082140464B
:1023B000FEF7CEFE00240C20CDE90004694630462D
:1023C0000294FEF7D5FD00950125CDE9015469463B
:1023D00030460394FEF7CCFD2320CDE90004694686
:1023E00038460294FEF7C4FD18200090CDE9015450
:1023F000694638460394FEF7BBFD08200090CDE9FE
:102400000154694640460394FEF7B2FD06B0BDE8AC
:10241000F08100000010024000040048001C004849
:10242000134810B511490160124941600021012291
:10243000C0E90212016141618161C1610162FEF77F
:10244000E7FE08B1FEF766FA00210948FEF78CFEA8
:1024500008B1FEF75FFA00210548FEF7B0FE00283C
:1024600003D0BDE81040FEF755BA10BD005400403F
:1024700074000020EC9C90100C4810B50A490160D3
:1024800000217F22C0E90112FF22C0E9032141613E
:102490008161C161FFF738FD002803D0BDE810401D
:1024A000FEF738BA10BD000000280040C000002030
:1024B000124810B5104901604FF48271416000214B
:1024C0004FF44072C0E902124FF400720161C0E99A
:1024D0000512C161016207224162C0E90A1201636B
:1024E00008214163FFF79BFD002803D0BDE81040A1
:1024F000FEF710BA10BD000000300140E4000020DB
:102500000D4810B50B4901604FF4E13141600021E5
:1025100081600C22C160C0E904128161C161016265
:102520004162FFF733FE002803D0BDE81040FEF7FC
:10253000F1B910BD0038014048010020FEE7FEE778
:10254000704700002DE9F041444C05468846E0689C
:102550000026810728680DD0E16801F0030181425F
:1025600016D1A8B1E0686968C0F30210401C884227
:102570000ED120E0012804D0022805D0032807D17D
:1025800008E02168890701E021684905002907DB87
:1025900001265FE02168890302D421684903F5E739
:1025A000E1686A686FF00F0321F0730103EB021218
:1025B00011430143E160206820F080602060FEF755
:1025C000CDFD074605E000BFFEF7C8FDC01B022891
:1025D00037D820680001F7D4B8F1000F18D0B8F14F
:1025E000010F1DD0287D4FF07E41400801EB406077
:1025F000A96840EA01202169194A11400843206175
:10260000206840F080602060FEF7A8FD07461AE0D1
:10261000A868297B000240EAC1602169114AECE701
:10262000288A1149400801EB4050A96840EA01207E
:1026300021690E4AE1E700BFFEF790FDC01B0228AA
:1026400001D9032606E020680001F5D52069A969B3
:10265000084320613046BDE8F081000000100240D0
:10266000FF80FFF9FF80FF070000E0FFFF809FFF72
:10267000F8B51C4D06460024A86DC00002D5FEF733
:1026800019FF0DE0A86D40F08050A865A86D00F01E
:1026900080500090FEF70EFFA96D21F08051A965D2
:1026A000B0F5007F04D0802E07D94FF003040AE074
:1026B000802E08D9A02E01D804E001D1022402E026
:1026C000702E00D101240848016821F00701214340
:1026D0000160006800F00700A04201D00120F8BDB1
:1026E0000020F8BD00100240002002402DE9F0411A
:1026F000044600680025C168490617D4691EC160F8
:10270000FEF72CFD06464FF47A78032708E000BF59
:10271000FEF724FD801B404502D9032584F8217073
:102720002068C068400601D4032DF1D12846BDE8D9
:10273000F08100002DE9F0410646134800250168AC
:1027400021F080010160041F20684FF0030780061C
:1027500007D43046FFF748FC90B186F82170032576
:102760000EE0206820F0200020603046FFF73CFC9F
:1027700010B186F821700325206840F02000206009
:102780002846BDE8F08100000C2800407047FEF7A5
:10279000DBBD000000B597B044216846FDF7DDFDC4
:1027A000142111A8FDF7D9FD4FF40070FEF74EFE7D
:1027B00008B172B6FEE7FEF785FE184850F8901F84
:1027C00021F0180101600620012100900802CDE9E6
:1027D00002101020049002200A90CDE90B010A217A
:1027E0000D910721CDE90E1010906846FFF7D6F83D
:1027F00008B172B6FEE70F2011900320129000205E
:10280000139014901590042111A8FEF7C1FF002821
:1028100001D072B6FEE717B000BD00000010024004
:102820000248016841F470010160704788ED00E0E2
:1028300090F82410C90706D001684A68836A22F418
:1028400000321A434A6090F82410890706D50168BF
:102850004A68C36A22F480321A434A6090F824100E
:10286000490706D501684A68036B22F480221A439F
:102870004A6090F82410090706D501684A68436B3E
:1028800022F400421A434A6090F82410C90606D583
:1028900001688A68836B22F480521A438A6090F838
:1028A0002410890606D501688A68C36B22F4005299
:1028B0001A438A6090F82410490611D501684A68C5
:1028C000036C22F480121A434A60016CB1F5801F38
:1028D00006D101684A68436C22F4C0021A434A6078
:1028E00090F82410090606D501684A68806C22F425
:1028F000002202434A607047F8B500260446C0F83B
:102900008060FEF72BFC0546206800686FF07E476C
:10291000000708D52B4600224FF4001120460097EF
:1029200000F018F960B92068006840070AD52B4606
:1029300000224FF480012046009700F00BF908B107
:102940000320F8BD2020A067E067266684F8746045
:102950000020F8BD2DE9F041044601688068226935
:10296000E3691043626900251A431043714F0A68F6
:10297000714B1A4002430A6020684168E26821F402
:102980004051114341602168A069B94201D0226AD7
:1029900010438A6822F4306202438A6067492368E0
:1029A00067488B420DD1D0F8880010F0030006D0A4
:1029B000012847D0022843D0032830D144E0012128
:1029C0002EE060498B420BD1D0F8880010F00C004B
:1029D00034D0042836D0082832D00C281FD133E058
:1029E00059498B420BD1D0F8880010F0300025D027
:1029F000102827D0202823D0302810D124E0BB4233
:102A00000DD1D0F8880010F4406017D0B0F5806F79
:102A100018D0B0F5006F13D0B0F5406F14D010216E
:102A20004A4A00264FF40040BB422FD171B102291F
:102A30000FD004290FD0082973D10FE00021EFE750
:102A40000221EDE70421EBE70821E9E7FEF730FF7B
:102A500003E0104602E0FEF74FFFE8B3626802EBC6
:102A6000420181425DD8B0EB023F5AD8010E030209
:102A70005008181871410023FDF7F8FB344AA0F5FF
:102A8000407191424DD82168C8604BE0E3694FF630
:102A9000EF77834228D1092943D2DFE801F0050806
:102AA0000B420D4242421000FEF702FF06E0FEF725
:102AB00011FF03E0104602E0FEF71EFF60B1410087
:102AC000606801EB5001B1FBF0F0A0F11001B942D8
:102AD00027D84FF6F07100E024E00140C0F3420037
:102AE00001432068C1601DE009291AD2DFE801F026
:102AF00005080B190D1919191000FEF7D9FE06E08B
:102B0000FEF7E8FE03E0104602E0FEF7F5FE48B1EE
:102B1000616800EB5100B0FBF1F0A0F11001B94287
:102B200005D9012566662846A666BDE8F08180B213
:102B3000A9E7000000800040F369FFEF0038014082
:102B40000010024000440040004800400024F4000F
:102B5000FFFC0F002DE9F0479A4617460E46044643
:102B60004FF000094FF02008089D4AE0681C48D04B
:102B7000FEF7F4FAA0EB0A00A8422AD84DB3206869
:102B8000016849073DD5C069C043000539D42168B3
:102B90004FF400600862206850E8001F21F4D071F3
:102BA00040E80012002AF6D12068083050E8001FE3
:102BB00021F0010140E80012002AF5D1C4F8788024
:102BC000C4F87C80C4F8808084F874900320BDE849
:102BD000F087216851E8000F20F4D07041E800022E
:102BE000002AF6D12068083050E8001F21F00101CA
:102BF00040E80012002AF5D1C4F87880C4F87C803F
:102C0000E2E72068C06936EA000004D00020B8423C
:102C1000ACD00020DBE70120F9E7FEE70907090E49
:102C2000002804DB00F1E02080F80014704700F079
:102C30000F0000F1E02080F8141D704700214FF4D0
:102C4000205304E00222521C9A42FCD3491C8142C8
:102C5000F8D3704786B0FEF77FFBFFF79BFDFFF7C9
:102C60006BFBFFF709FCFFF74BFCFFF729FBFFF7B6
:102C7000D7FBFFF71DFC012208213448FEF768FA54
:102C8000FDF730FD32493348FDF7CDFBFDF7EBFB97
:102C900040F6B8342046FEF759F9FDF723FD2E49DA
:102CA0002E48FDF7C0FBFDF7DEFB2046FEF74EF990
:102CB000FDF718FD2A492B48FDF7B5FBFDF7D3FBBF
:102CC0002046FEF743F9FDF70DFD382450218D0015
:102CD0000094254A012328460194FDF7D0FBFDF717
:102CE000C2FB4FF47A763046FEF730F9FDF7FAFC76
:102CF00000941E4A02238C2128460194FDF7BFFB55
:102D0000FDF7B1FB3046FEF721F9FDF7EBFC184B60
:102D100003F5C470CDE90304A3F5C462009502F580
:102D2000C4718C200594CDE9010150212846FDF79E
:102D300005FCFDF798FB3046FEF708F9FDF7D2FCDD
:102D4000FDF74EFDFDF78FFBFEE70000001C00487D
:102D5000F69200085E580008260801088ECD00088B
:102D6000567D0108BE4201087E2D0008563E00082F
:102D70003E5200084FF04070E1EE100A7047FFFF2E
:102D8000FFFFFFFFFFFFFFFFFFFFFFFFFFFFFFFF53
:102D9000FFFFFFFFFFFFFFFFFFFFFFFFFF01FFFF41
:102DA000FFFFFFF8FE3FFFFFFFFFC3FF87FFFFFFAF
:102DB000FF87FFC3FFFFFFFF87FFC3FFFFFFFF0F7B
:102DC000FFE1FFFFFFFE0FFFE0FFFFFFFE1FFFF031
:102DD0007FFFFFFC1FFFF07FFFFFF81FFFF03FFFAB
:102DE000FFF81FFFF03FFFFFF83FFFF83FFFFFF83E
:102DF0003FFFF83FFFFFF03FFFF81FFFFFF03FFFEF
:102E0000F81FFFFFF03FFFF81FFFFFF07FFFFC1FE1
:102E1000FFFFF07FFFFC1FFFFFE07FFFFC0FFFFFC6
:102E2000E07FFFFC0FFFFFE07FFFFC0FFFFFE07F75
:102E3000FFFC0FFFFFE07FFFFC0FFFFFE07FFFFCC9
:102E40000FFFFFE07FFFFC0FFFFFE07FFFFC0FFFA6
:102E5000FFE07FFFFC0FFFFFE07FFFFC0FFFFFE0C5
:102E60007FFFFC0FFFFFE07FFFFC0FFFFFF07FFF06
:102E7000FC1FFFFFF07FFFFC1FFFFFF03FFFF81F6D
:102E8000FFFFF03FFFF81FFFFFF03FFFF81FFFFFBE
:102E9000F83FFFF83FFFFFF83FFFF83FFFFFF81F45
:102EA000FFF03FFFFFF81FFFF03FFFFFFC1FFFF0A9
:102EB0007FFFFFFE1FFFF07FFFFFFE0FFFE0FFFF22
:102EC000FFFF0FFFE1FFFFFFFF87FFC3FFFFFFFFD4
:102ED00087FFC3FFFFFFFFC1FF07FFFFFFFFF87E74
:102EE0003FFFFFFFFFFF01FFFFFFFFFFFFFFFFFFB0
:102EF000FFFFFFFFFFFFFFFFFFFFFFFFFFFFFFFFE2
:102F0000FFFFFFFFFFFFFFFFFFFFFFFFFFFFFFFFD1
:102F1000FFFFFFFFFFFFFFFFFFFFFFFFFFFFFFFFC1
:102F2000FFFFFFFFFFFDFFFFFFFFFFFFF9FFFFFFB9
:102F3000FFFFFFF1FFFFFFFFFFFFC1FFFFFFFFFFED
:102F4000FF81FFFFFFFFFFFF01FFFFFFFFFFFE010C
:102F5000FFFFFFFFFFFC81FFFFFFFFFFF381FFFF8C
:102F6000FFFFFFEF81FFFFFFFFFFFF81FFFFFFFF7D
:102F7000FFFF81FFFFFFFFFFFF81FFFFFFFFFFFF5D
:102F800081FFFFFFFFFFFF81FFFFFFFFFFFF81FFCB
:102F9000FFFFFFFFFF81FFFFFFFFFFFF81FFFFFF3D
:102FA000FFFFFF81FFFFFFFFFFFF81FFFFFFFFFF2D
:102FB000FF81FFFFFFFFFFFF81FFFFFFFFFFFF819B
:102FC000FFFFFFFFFFFF81FFFFFFFFFFFF81FFFF0D
:102FD000FFFFFFFF81FFFFFFFFFFFF81FFFFFFFFFD
:102FE000FFFF81FFFFFFFFFFFF81FFFFFFFFFFFFED
:102FF00081FFFFFFFFFFFF81FFFFFFFFFFFF81FF5B
:10300000FFFFFFFFFF81FFFFFFFFFFFF81FFFFFFCC
:10301000FFFFFF81FFFFFFFFFFFF81FFFFFFFFFFBC
:10302000FF81FFFFFFFFFFFF81FFFFFFFFFFFF812A
:10303000FFFFFFFFFFFF81FFFFFFFFFFFF81FFFF9C
:10304000FFFFFFFF81FFFFFFFFFFFF81FFFFFFFF8C
:10305000FFFF81FFFFFFFFFFFF00FFFFFFFFFFFFFD
:1030600000FFFFFFFFFFFC003FFFFFFFFF800001AD
:10307000FFFFFFFFFFFFFFFFFFFFFFFFFFFFFFFF60
:10308000FFFFFFFFFFFFFFFFFFFFFFFFFFFFFFFF50
:10309000FFFFFFFFFFFFFFFFFFFFFFFFFFFFFFFF40
:1030A000FFFFFFFFFFFFFFFFFFFFFFFFFC003FFFF2
:1030B000FFFFFFE3FF87FFFFFFFF1FFFE1FFFFFFB2
:1030C000FEFFFFF0FFFFFFFDFFFFF87FFFFFFBFFAD
:1030D000FFF83FFFFFFBFFFFF83FFFFFF07FFFFC24
:1030E0001FFFFFF03FFFFC1FFFFFE01FFFFC0FFF74
:1030F000FFE01FFFFC0FFFFFE01FFFFC0FFFFFF0D3
:103100001FFFFC0FFFFFF83FFFFC0FFFFFFFFFFF5C
:10311000FC1FFFFFFFFFFFF81FFFFFFFFFFFF83F50
:10312000FFFFFFFFFFF03FFFFFFFFFFFF07FFFFF0D
:10313000FFFFFFE0FFFFFFFFFFFFC3FFFFFFFFFFFA
:10314000FF87FFFFFFFFFFFF1FFFFFFFFFFFFC7F6A
:10315000FFFFFFFFFFF3FFFFFFFFFFFFCFFFFFFFBB
:10316000FFFFFF3FFFFFFFFFFFFCFFFFFFFFFFFF32
:10317000F3FFFFFFFFFFFFCFFFFFFFFFFFFFBFFFDB
:10318000FFFFFFFFFF7FFFFFFFFFFFFEFFFFFFFFD0
:10319000FFFFFDFFFFFFFFFFFFFBFFFFFFFFFFFF45
:1031A000FBFFFFFFFFFFFFFBFFFFFFEFFFFFF7FF4F
:1031B000FFFFEFFFFFF7FFFFFFEFFFFFF7FFFFFF4F
:1031C000EFFFFFE803FFFFCFFFFFE3E01FFF1FFF5D
:1031D000FFE7F800001FFFFFEFFC00003FFFFFEFDD
:1031E000FF00003FFFFFEFFFC0007FFFFFEFFFE0AA
:1031F00000FFFFFFEFFFF801FFFFFFFFFFFFFFFFF3
:10320000FFFFFFFFFFFFFFFFFFFFFFFFFFFFFFFFCE
:10321000FFFFFFFFFFFFFFFFFFFFFFFFFFFFFFFFBE
:10322000FFFFFFFFFFFFFFFFFFFFFFFFFFFFFFFFAE
:10323000FFFFFFFFFE003FFFFFFFFFF1FE07FFFF65
:10324000FFFF8FFF80FFFFFFFE7FFFC0FFFFFFFD3F
:10325000FFFFE07FFFFFFDFFFFE07FFFFFFBFFFFC2
:10326000F03FFFFFFC7FFFF03FFFFFF83FFFF03F25
:10327000FFFFF81FFFF03FFFFFF81FFFF03FFFFFCA
:10328000F81FFFF03FFFFFF81FFFF03FFFFFFC3F7D
:10329000FFF03FFFFFFFFFFFF03FFFFFFFFFFFE0FB
:1032A0007FFFFFFFFFFFE07FFFFFFFFFFFC0FFFF8C
:1032B000FFFFFFFF80FFFFFFFFFFFE03FFFFFFFF9A
:1032C000FF801FFFFFFFFFFFFC1FFFFFFFFFFFFF50
:1032D00007FFFFFFFFFFFFC3FFFFFFFFFFFFE1FF50
:1032E000FFFFFFFFFFF0FFFFFFFFFFFFF07FFFFF8C
:1032F000FFFFFFF83FFFFFFFFFFFF81FFFFFFFFF8C
:10330000FFF81FFFFFFFFFFFFC1FFFFFFFFFFFFC9A
:103310000FFFFFFFFFFFFC0FFFFFFFFFFFFC0FFF93
:10332000FFFC3FFFFC0FFFFFF81FFFFC0FFFFFF844
:103330001FFFFC0FFFFFF81FFFFC0FFFFFF81FFF31
:10334000FC0FFFFFF83FFFFC0FFFFFFC7FFFF81FA4
:10335000FFFFFBFFFFF81FFFFFFDFFFFF83FFFFF31
:10336000FDFFFFF03FFFFFFEFFFFF07FFFFFFF1FAE
:10337000FFE0FFFFFFFFE3FF87FFFFFFFFFC003FD2
:10338000FFFFFFFFFFFFFFFFFFFFFFFFFFFFFFFF4D
:10339000FFFFFFFFFFFFFFFFFFFFFFFFFFFFFFFF3D
:1033A000FFFFFFFFFFFFFFFFFFFFFFFFFFFFFFFF2D
:1033B000FFFFFFFFFFFFFFFFFFFFFFFFFFFFDFFF3D
:1033C000FFFFFFFFFFDFFFFFFFFFFFFF9FFFFFFF8D
:1033D000FFFFFF1FFFFFFFFFFFFF1FFFFFFFFFFFBD
:1033E000FE1FFFFFFFFFFFFC1FFFFFFFFFFFF81F98
:1033F000FFFFFFFFFFF81FFFFFFFFFFFE01FFFFFC3
:10340000FFFFFFD81FFFFFFFFFFFD81FFFFFFFFFDA
:10341000FFB81FFFFFFFFFFF781FFFFFFFFFFEF852
:103420001FFFFFFFFFFEF81FFFFFFFFFFDF81FFF5D
:10343000FFFFFFFBF81FFFFFFFFFF7F81FFFFFFF76
:10344000FFF7F81FFFFFFFFFEFF81FFFFFFFFFDF92
:10345000F81FFFFFFFFFBFF81FFFFFFFFFBFF81FB1
:10346000FFFFFFFF7FF81FFFFFFFFEFFF81FFFFFBB
:10347000FFFEFFF81FFFFFFFFDFFF81FFFFFFFFB31
:10348000FFF81FFFFFFFF7FFF81FFFFFFFF7FFF831
:103490001FFFFFFFEFFFF81FFFFFFFDFFFF81FFF1A
:1034A000FFFFBFFFF81FFFFFFF8000000003FFFFCB
:1034B0007FFFF81FFFFFFFFFFFF81FFFFFFFFFFF6A
:1034C000F81FFFFFFFFFFFF81FFFFFFFFFFFF81FC1
:1034D000FFFFFFFFFFF81FFFFFFFFFFFF81FFFFFCA
:1034E000FFFFFFF81FFFFFFFFFFFF81FFFFFFFFFBA
:1034F000FFF00FFFFFFFFFFFF00FFFFFFFFFFFC019
:1035000003FFFFFFFFF800001FFFFFFFFFFFFFFFAC
:10351000FFFFFFFFFFFFFFFFFFFFFFFFFFFFFFFFBB
:10352000FFFFFFFFFFFFFFFFFFFFFFFFFFFFFFFFAB
:10353000FFFFFFFFFFFFFFFFFFFFFFFFFFFFFFFF9B
:10354000FFFFFFFF0000007FFFFFFE000003FFFF03
:10355000FFFE00000FFFFFFFFE00003FFFFFFFFE2A
:103560000001FFFFFFFFFE001FFFFFFFFFFCFFFF4B
:10357000FFFFFFFFFDFFFFFFFFFFFFFDFFFFFFFF5F
:10358000FFFFFDFFFFFFFFFFFFFDFFFFFFFFFFFF4F
:10359000F9FFFFFFFFFFFFFBFFFFFFFFFFFFFBFF49
:1035A000FFFFFFFFFFFBFFFFFFFFFFFFFBFFFFFF33
:1035B000FFFFFFF3F801FFFFFFFFF7C7FE3FFFFF2D
:1035C000FFF73FFF87FFFFFFF6FFFFC3FFFFFFF59A
:1035D000FFFFE1FFFFFFE3FFFFF0FFFFFFE7FFFF5C
:1035E000F07FFFFFEFFFFFF83FFFFFFFFFFFF83F18
:1035F000FFFFFFFFFFF83FFFFFFFFFFFFC1FFFFF85
:10360000FFFFFFFC1FFFFFFFFFFFFC0FFFFFFFFFA0
:10361000FFFC0FFFFFFFFFFFFC0FFFFFFFFFFFFCA3
:103620000FFFFFFFFFFFFC0FFFFFFFFFFFFC0FFF80
:10363000FFF87FFFFC0FFFFFF03FFFFC0FFFFFE0F5
:103640001FFFFC1FFFFFE01FFFFC1FFFFFE01FFF2E
:10365000F83FFFFFF03FFFF83FFFFFF07FFFF83F2D
:10366000FFFFFBFFFFF07FFFFFFBFFFFF0FFFFFF10
:10367000FDFFFFE1FFFFFFFEFFFFC3FFFFFFFF3F77
:10368000FF07FFFFFFFFC7FC3FFFFFFFFFF801FF42
:10369000FFFFFFFFFFFFFFFFFFFFFFFFFFFFFFFF3A
:1036A000FFFFFFFFFFFFFFFFFFFFFFFFFFFFFFFF2A
:1036B000FFFFFFFFFFFFFFFFFFFFFFFFFFFFFFFF1A
:1036C000FFFFFFFFFFFFFFFFFFFFFFFFFFC00FFF39
:1036D000FFFFFFFE1FE3FFFFFFFFF87FF9FFFFFF84
:1036E000FFE1FFFEFFFFFFFFC3FFF0FFFFFFFF87CC
:1036F000FFE07FFFFFFF07FFC07FFFFFFF0FFFC05F
:103700003FFFFFFE0FFFC03FFFFFFE1FFFC03FFF59
:10371000FFFC1FFFE07FFFFFF81FFFF0FFFFFFF838
:103720001FFFFFFFFFFFF83FFFFFFFFFFFF83FFF17
:10373000FFFFFFFFF03FFFFFFFFFFFF03FFFFFFF37
:10374000FFFFF07FFFFFFFFFFFF07F00FFFFFFFFA6
:10375000E07CFE1FFFFFFFE073FF87FFFFFFE067D6
:10376000FFE3FFFFFFE04FFFF1FFFFFFE05FFFF030
:10377000FFFFFFE01FFFF87FFFFFE03FFFF83FFF85
:10378000FFE07FFFF83FFFFFE07FFFFC3FFFFFE030
:103790007FFFFC1FFFFFE07FFFFC1FFFFFE07FFFBD
:1037A000FC1FFFFFE07FFFFC0FFFFFE07FFFFC0F30
:1037B000FFFFE07FFFFC0FFFFFE07FFFFC0FFFFF3D
:1037C000E03FFFFC1FFFFFF03FFFFC1FFFFFF03F4C
:1037D000FFFC1FFFFFF81FFFFC3FFFFFF81FFFF874
:1037E0003FFFFFF81FFFF83FFFFFFC0FFFF87FFFD1
:1037F000FFFE0FFFF0FFFFFFFF07FFE1FFFFFFFFEF
:1038000087FFC3FFFFFFFFC1FF87FFFFFFFFF87EBA
:103810001FFFFFFFFFFF00FFFFFFFFFFFFFFFFFF97
:10382000FFFFFFFFFFFFFFFFFFFFFFFFFFFFFFFFA8
:10383000FFFFFFFFFFFFFFFFFFFFFFFFFFFFFFFF98
:10384000FFFFFFFFFFFFFFFFFFFFFFFFFFFFFFFF88
:10385000FFFFFFEF80FFFFEFFFFFEF007FFFCFFFD6
:10386000FFEE001FFFCFFFFFEC0007FFAFFFFFE8F9
:103870000001FFAFFFFFE80000FF6FFFFFE0FFF078
:103880003EEFFFFFE3FFFF81EFFFFFE7FFFFFFDFFB
:10389000FFFFEFFFFFFFDFFFFFEFFFFFFFDFFFFF98
:1038A000EFFFFFFFBFFFFFEFFFFFFFBFFFFFEFFFD8
:1038B000FFFFBFFFFFFFFFFFFF7FFFFFFFFFFFFED9
:1038C000FFFFFFFFFFFFFCFFFFFFFFFFFFF9FFFF11
:1038D000FFFFFFFFF3FFFFFFFFFFFFE7FFFFFFFF1C
:1038E000FFFFCFFFFFFFFFFFFF8FFFFFFFFFFFFF88
:1038F0001FFFFFFFFFFFFE3FFFFFFFFFFFFC7FFFFC
:10390000FFFFFFFFF8FFFFFFFFFFFFF0FFFFFFFFDD
:10391000FFFFE1FFFFFFFFFFFFE1FFFFFFFFFFFFF3
:10392000C3FFFFFFFFFFFF83FFFFFFFFFFFF83FFDB
:10393000FFFFFFFFFF03FFFFFFFFFFFF07FFFFFF8B
:10394000FFFFFE07FFFFFFFFFFFE07FFFFFFFFFF79
:10395000FE07FFFFFFFFFFFC0FFFFFFFFFFFFC0F56
:10396000FFFFFFFFFFFC0FFFFFFFFFFFFC0FFFFF4D
:10397000FFFFFFFC0FFFFFFFFFFFFC0FFFFFFFFF3D
:10398000FFFC0FFFFFFFFFFFFC0FFFFFFFFFFFFC30
:103990000FFFFFFFFFFFFC0FFFFFFFFFFFFC0FFF0D
:1039A000FFFFFFFFFFFFFFFFFFFFFFFFFFFFFFFF27
:1039B000FFFFFFFFFFFFFFFFFFFFFFFFFFFFFFFF17
:1039C000FFFFFFFFFFFFFFFFFFFFFFFFFFFFFFFF07
:1039D000FFFFFFFFFFFFFFFFFFFFFFFFF8003FFFBD
:1039E000FFFFFFC1FF07FFFFFFFE03FF80FFFFFF99
:1039F000FE07FFC0FFFFFFFC0FFFE07FFFFFFC0F94
:103A0000FFE07FFFFFF81FFFF03FFFFFF81FFFF011
:103A10003FFFFFF81FFFF03FFFFFF81FFFF03FFFE2
:103A2000FFF81FFFF03FFFFFF81FFFF03FFFFFF819
:103A30001FFFF03FFFFFF81FFFF03FFFFFF81FFFE2
:103A4000F03FFFFFFC0FFFE07FFFFFFC0FFFE07F79
:103A5000FFFFFE07FFC0FFFFFFFE03FF80FFFFFF2A
:103A6000FF81FF03FFFFFFFFF0001FFFFFFFFFC10C
:103A7000FF87FFFFFFFE07FFC0FFFFFFFC1FFFF0F8
:103A80007FFFFFF81FFFF03FFFFFF83FFFF83FFF0A
:103A9000FFF03FFFF81FFFFFF03FFFF81FFFFFE0C1
:103AA0007FFFFC0FFFFFE07FFFFC0FFFFFE07FFFCA
:103AB000FC0FFFFFE07FFFFC0FFFFFE07FFFFC0F2D
:103AC000FFFFE07FFFFC0FFFFFE07FFFFC0FFFFF2A
:103AD000E07FFFFC0FFFFFE07FFFFC0FFFFFE07FB9
:103AE000FFFC0FFFFFE07FFFFC0FFFFFE07FFFFC0D
:103AF0000FFFFFF03FFFF81FFFFFF03FFFF81FFF32
:103B0000FFF83FFFF83FFFFFFC1FFFF07FFFFFFEC6
:103B10001FFFF0FFFFFFFF0FFFE1FFFFFFFFC3FFEE
:103B200087FFFFFFFFF8003FFFFFFFFFFFFFFFFFE3
:103B3000FFFFFFFFFFFFFFFFFFFFFFFFFFFFFFFF95
:103B4000FFFFFFFFFFFFFFFFFFFFFFFFFFFFFFFF85
:103B5000FFFFFFFFFFFFFFFFFFFFFFFFFFFFFFFF75
:103B6000FFFFFFFFFF00FFFFFFFFFFF8FE1FFFFF4C
:103B7000FFFFC3FF87FFFFFFFF87FFC3FFFFFFFFBD
:103B80000FFFC1FFFFFFFE1FFFE0FFFFFFFC3FFF36
:103B9000E07FFFFFFC3FFFF03FFFFFF83FFFF03FFC
:103BA000FFFFF87FFFF81FFFFFF87FFFF81FFFFF01
:103BB000F07FFFF81FFFFFF07FFFFC0FFFFFF07F9C
:103BC000FFFC0FFFFFF07FFFFC0FFFFFF07FFFFC0C
:103BD0000FFFFFF07FFFFC0FFFFFF07FFFFC0FFFE9
:103BE000FFF07FFFFC0FFFFFF87FFFFC0FFFFFF8E8
:103BF0007FFFFC0FFFFFF83FFFF80FFFFFFC3FFFC9
:103C0000F80FFFFFFC3FFFF00FFFFFFE1FFFF00F5D
:103C1000FFFFFF1FFFE40FFFFFFF87FFCC0FFFFF3A
:103C2000FFC3FF1C0FFFFFFFF8FE7C0FFFFFFFFF2E
:103C300001FC1FFFFFFFFFFFFC1FFFFFFFFFFFFC5B
:103C40001FFFFFFFFFFFFC1FFFFFFFFFFFFC1FFF2A
:103C5000FFFFFFFFF83FFFFFFFFFFFF83FFFFFFF02
:103C60000FFFF83FFFFFFE07FFF07FFFFFFC03FFA2
:103C7000F07FFFFFFC03FFF0FFFFFFFC03FFE0FF0F
:103C8000FFFFFC07FFE1FFFFFFFE0FFFC3FFFFFF8A
:103C9000FE1FFF87FFFFFFFF7FFF0FFFFFFFFF3FBD
:103CA000FE1FFFFFFFFFCFF8FFFFFFFFFFF007FF43
:103CB000FFFFFFFFFFFFFFFFFFFFFFFFFFFFFFFF14
:103CC000FFFFFFFFFFFFFFFFFFFFFFFFFFFF000002
:103CD00000000000000000000000000000000000E4
:103CE00000000000000000000000000000FE0000D6
:103CF0000000000701C0000000003C007800000048
:103D00000078003C0000000078003C00000000F05B
:103D1000001E00000001F0001F00000001E0000F85
:103D200080000003E0000F80000007E0000FC000EB
:103D30000007E0000FC0000007C00007C000000738
:103D4000C00007C000000FC00007E000000FC00067
:103D500007E000000FC00007E000000F800003E054
:103D600000000F800003E000001F800003F000004F
:103D70001F800003F000001F800003F000001F8080
:103D80000003F000001F800003F000001F8000030C
:103D9000F000001F800003F000001F800003F0000F
:103DA000001F800003F000001F800003F000001FD0
:103DB000800003F000001F800003F000000F80006F
:103DC00003E000000F800003E000000FC00007E0E8
:103DD00000000FC00007E000000FC00007E0000077
:103DE00007C00007C0000007C00007C0000007E0D0
:103DF000000FC0000007E0000FC0000003E0000F4C
:103E000080000001E0000F80000001F0001F0000B2
:103E10000000F0001E0000000078003C00000000E0
:103E200078003C000000003E00F800000000078120
:103E3000C00000000000FE000000000000000000C4
:103E40000000000000000000000000000000000072
:103E50000000000000000000000000000000000062
:103E60000000000000000000000000000000000052
:103E7000000000000002000000000000060000003A
:103E80000000000E0000000000003E0000000000E6
:103E9000007E000000000000FE000000000001FEA7
:103EA0000000000000037E00000000000C7E000007
:103EB000000000107E0000000000007E00000000F6
:103EC00000007E0000000000007E000000000000F6
:103ED0007E0000000000007E0000000000007E0068
:103EE00000000000007E0000000000007E000000D6
:103EF0000000007E0000000000007E0000000000C6
:103F0000007E0000000000007E0000000000007E37
:103F10000000000000007E0000000000007E0000A5
:103F2000000000007E0000000000007E0000000095
:103F300000007E0000000000007E00000000000085
:103F40007E0000000000007E0000000000007E00F7
:103F500000000000007E0000000000007E00000065
:103F60000000007E0000000000007E000000000055
:103F7000007E0000000000007E0000000000007EC7
:103F80000000000000007E0000000000007E000035
:103F9000000000007E0000000000007E0000000025
:103FA00000007E000000000000FF00000000000094
:103FB000FF000000000003FFC0000000007FFFFEC4
:103FC00000000000000000000000000000000000F1
:103FD00000000000000000000000000000000000E1
:103FE00000000000000000000000000000000000D1
:103FF00000000000000000000000000003FFC000FF
:104000000000001C007800000000E0001E0000001E
:104010000100000F00000002000007800000040003
:104020000007C0000004000007C000000F8000036C
:10403000E000000FC00003E000001FE00003F000FC
:10404000001FE00003F000001FE00003F000000F7D
:10405000E00003F0000007C00003F00000000000D3
:1040600003E0000000000007E0000000000007C0BF
:1040700000000000000FC000000000000F800000E2
:104080000000001F0000000000003C0000000000D5
:104090000078000000000000E00000000000038045
:1040A00000000000000C00000000000030000000D4
:1040B000000000C00000000000030000000000003D
:1040C0000C00000000000030000000000000400074
:1040D000000000000080000000000001000000005F
:1040E00000000200000000000004000000000000CA
:1040F00004000000000000040000001000000800A0
:10410000000010000008000000100000080000007F
:1041100010000017FC00003000001C1FE000E00051
:10412000001807FFFFE000001003FFFFC0000010B1
:1041300000FFFFC0000010003FFF80000010001FC4
:10414000FF000000100007FE00000000000000005B
:10415000000000000000000000000000000000005F
:10416000000000000000000000000000000000004F
:10417000000000000000000000000000000000003F
:104180000000000001FFC0000000000E01F8000068
:10419000000070007F0000000180003F000000026E
:1041A00000001F8000000200001F800000040000CB
:1041B0000FC000000380000FC0000007C0000FC048
:1041C000000007E0000FC0000007E0000FC0000083
:1041D00007E0000FC0000007E0000FC0000003C0B0
:1041E000000FC000000000000FC000000000001F12
:1041F0008000000000001F8000000000003F000061
:10420000000000007F000000000001FC0000000032
:10421000007FE0000000000003E00000000000005C
:10422000F80000000000003C0000000000001E003C
:1042300000000000000F0000000000000F800000E0
:1042400000000007C0000000000007E000000000C0
:104250000007E0000000000003E000000000000391
:10426000F0000000000003F0000000000003F00078
:104270000003C00003F0000007E00003F0000007A7
:10428000E00003F0000007E00003F0000007E0009A
:1042900003F0000007C00003F0000003800007E007
:1042A000000004000007E0000002000007C000005A
:1042B0000200000FC000000100000F80000000E0BD
:1042C000001F000000001C00780000000003FFC079
:1042D00000000000000000000000000000000000DE
:1042E00000000000000000000000000000000000CE
:1042F00000000000000000000000000000000000BE
:10430000000000000000000000000000000020008D
:10431000000000000020000000000000600000001D
:10432000000000E0000000000000E00000000000CD
:1043300001E0000000000003E0000000000007E0D2
:10434000000000000007E000000000001FE0000087
:1043500000000027E0000000000027E0000000004F
:104360000047E0000000000087E0000000000107B7
:10437000E0000000000107E0000000000207E0008C
:104380000000000407E0000000000807E000000053
:10439000000807E0000000001007E0000000002017
:1043A00007E0000000004007E0000000004007E0D8
:1043B000000000008007E0000000010007E00000AE
:1043C00000010007E0000000020007E00000000418
:1043D0000007E0000000080007E0000000080007F8
:1043E000E0000000100007E0000000200007E000EF
:1043F0000000400007E00000007FFFFFFFFC00001E
:10440000800007E0000000000007E000000000005E
:1044100007E0000000000007E0000000000007E0E7
:10442000000000000007E0000000000007E00000BE
:1044300000000007E0000000000007E000000000AE
:10444000000FF000000000000FF000000000003F2F
:10445000FC0000000007FFFFE0000000000000007B
:10446000000000000000000000000000000000004C
:10447000000000000000000000000000000000003C
:10448000000000000000000000000000000000002C
:1044900000000000FFFFFF80000001FFFFFC0000A4
:1044A0000001FFFFF000000001FFFFC0000000015D
:1044B000FFFE0000000001FFE0000000000300001C
:1044C00000000000020000000000000200000000E8
:1044D00000000200000000000002000000000000D8
:1044E00006000000000000040000000000000400BE
:1044F00000000000000400000000000004000000B4
:104500000000000C07FE00000000083801C0000099
:104510000008C000780000000900003C0000000A0C
:1045200000001E0000001C00000F0000001800002A
:104530000F80000010000007C0000000000007C04E
:10454000000000000007C0000000000003E00000C1
:1045500000000003E0000000000003F00000000085
:104560000003F0000000000003F000000000000362
:10457000F0000000000003F0000000000003F00065
:104580000007800003F000000FC00003F000001FD0
:10459000E00003E000001FE00003E000001FE00077
:1045A00007C000000FC00007C000000F800007C058
:1045B00000000400000F8000000400000F00000055
:1045C0000200001E0000000100003C00000000C0CE
:1045D00000F8000000003803C00000000007FE00E3
:1045E00000000000000000000000000000000000CB
:1045F00000000000000000000000000000000000BB
:1046000000000000000000000000000000000000AA
:10461000000000000000000000000000003FF0006B
:1046200000000001E01C0000000007800600000000
:10463000001E0001000000003C000F000000007898
:10464000001F80000000F8003F80000000F0003FE5
:10465000C0000001F0003FC0000001E0003FC000CA
:104660000003E0001F80000007E0000F00000007CB
:10467000E0000000000007C0000000000007C000CC
:10468000000000000FC000000000000FC00000008C
:1046900000000F8000000000000F80FF00000000FD
:1046A0001F8301E00000001F8C00780000001F98AD
:1046B000001C0000001FB0000E0000001FA0000F33
:1046C0000000001FE000078000001FC00007C000BE
:1046D000001F800007C000001F800003C000001FF3
:1046E000800003E000001F800003E000001F800046
:1046F00003E000001F800003F000001F800003F0B3
:1047000000001F800003F000001F800003F0000085
:104710001FC00003E000000FC00003E000000FC056
:104720000003E0000007E00003C0000007E000070E
:10473000C0000007E00007C0000003F00007800091
:104740000001F0000F00000000F8001E0000000053
:1047500078003C000000003E007800000000078167
:10476000E00000000000FF0000000000000000006A
:104770000000000000000000000000000000000039
:104780000000000000000000000000000000000029
:104790000000000000000000000000000000000019
:1047A000000000107F000010000010FF80003000AB
:1047B0000011FFE00030000013FFF8005000001768
:1047C000FFFE0050000017FFFF009000001F000FC9
:1047D000C11000001C00007E100000180000002026
:1047E0000000100000002000001000000020000069
:1047F0001000000040000010000000400000100009
:1048000000004000000000000080000000000001E7
:10481000000000000000030000000000000600008F
:10482000000000000C000000000000180000000064
:1048300000003000000000000070000000000000D8
:10484000E0000000000001C0000000000003800044
:1048500000000000070000000000000F0000000042
:1048600000001E0000000000001E0000000000000C
:104870003C0000000000007C0000000000007C0004
:104880000000000000FC000000000000F800000034
:10489000000001F8000000000001F8000000000026
:1048A00001F8000000000003F0000000000003F029
:1048B000000000000003F0000000000003F0000012
:1048C00000000003F0000000000003F00000000002
:1048D0000003F0000000000003F0000000000003EF
:1048E000F0000000000003F0000000000003F000F2
:1048F00000000000000000000000000000000000B8
:1049000000000000000000000000000000000000A7
:104910000000000000000000000000000000000097
:1049200000000000000000000000000007FFC000C1
:104930000000003E00F800000001FC007F000000C5
:1049400001F8003F00000003F0001F80000003F0AA
:10495000001F80000007E0000FC0000007E0000F0C
:10496000C0000007E0000FC0000007E0000FC0001B
:104970000007E0000FC0000007E0000FC0000007C4
:10498000E0000FC0000007E0000FC0000007E000DB
:104990000FC0000003F0001F80000003F0001F8024
:1049A000000001F8003F00000001FC007F00000053
:1049B000007E00FC000000000FFFE0000000003E51
:1049C000007800000001F8003F00000003E0000F45
:1049D00080000007E0000FC0000007C00007C00013
:1049E000000FC00007E000000FC00007E000001F3C
:1049F000800003F000001F800003F000001F800013
:104A000003F000001F800003F000001F800003F08F
:104A100000001F800003F000001F800003F0000072
:104A20001F800003F000001F800003F000001F80C3
:104A30000003F000001F800003F000001F8000034F
:104A4000F000000FC00007E000000FC00007E0000A
:104A50000007C00007C0000003E0000F8000000155
:104A6000E0000F00000000F0001E000000003C000D
:104A7000780000000007FFC00000000000000000F8
:104A80000000000000000000000000000000000026
:104A90000000000000000000000000000000000016
:104AA0000000000000000000000000000000000006
:104AB0000000000000FF00000000000701E000000F
:104AC00000003C00780000000078003C000000007E
:104AD000F0003E00000001E0001F00000003C000E5
:104AE0001F80000003C0000FC0000007C0000FC0FF
:104AF000000007800007E0000007800007E00000DA
:104B00000F800007E000000F800003F000000F801E
:104B10000003F000000F800003F000000F8000038E
:104B2000F000000F800003F000000F800003F00091
:104B3000000F800003F0000007800003F000000772
:104B4000800003F0000007C00007F0000003C00071
:104B500007F0000003C0000FF0000001E0000FF0BC
:104B6000000000E0001BF0000000780033F00000BF
:104B7000003C00E3F0000000070183F000000000AB
:104B8000FE03E0000000000003E00000000000035E
:104B9000E0000000000003E0000000000003E0006F
:104BA0000000000007C0000000000007C000000077
:104BB000F00007C0000001F8000F80000003FC00B7
:104BC0000F80000003FC000F00000003FC001F002A
:104BD000000003F8001E00000001F0003C0000008F
:104BE00001E00078000000008000F000000000C03C
:104BF00001E000000000300700000000000FF80096
:104C000000000000000000000000000000000000A4
:104C10000000000000000000000000000000FFFF96
:104C2000FFFFFFFFFFFFFFFFFFFFFFFFFFFFFFFF94
:104C3000FFFFFFFFFFFFFFFFFFFFFFFFFFFFFFFF84
:104C4000FFFFFFFFFFFFFFFFFFFFFFFFFFFFFFFF74
:104C5000FFFFFFFFFFFFFFFFFFFFFFFFFFFFFFFF64
:104C6000BFFFFFFFFFFFFFBFFFFFFFFFFFFFBFFF14
:104C7000FFFFFFFFFF3FFFFFFFFFFFFF7FFFFFFF84
:104C8000FFFFFF7FFFFFFFFFFFFEFFFFFFFFFFFFB5
:104C9000FEFFFFFFFFFFFFFCFFFFFFFFFFFFFDFF2A
:104CA000FFFFFFFFFFFDFFFFFFFFFFFFF9FFFFFF1C
:104CB000FFFFFFFBFFFFFFFFFFFFFBFFFFFFFFFF0C
:104CC000FFF7FFFFFFFFFFFFF7FFFFFFFFFFFFF70C
:104CD000FFFFFFFFFFFFEFFFFFFFFFFFFFEFFFFF04
:104CE000FFFFFFFFEFFFFFFFFFFFFFDFFFFFFFFF04
:104CF000FFFFDFFFFFFFFFFFFFDFFFFFFFFFFFFF04
:104D0000BFFFFFFFFFFFFFBFFFFFFFFFFFFFBFFF73
:104D1000FFFFFFFFFF7FFFFFFFFFFFFF7FFFFFFFA3
:104D2000FFFFFE7FFFFFFFFFFFFE00003FFFFFFFD3
:104D3000FEFFFFFFFFFFFFFCFFFFFFFFFFFFFDFF89
:104D4000FFFFFFFFFFFDFFFFFFFFFFFFFBFFFFFF79
:104D5000FFFFFFFBFFFFFFFFFFFFFBFFFFFFFFFF6B
:104D6000FFF7FFFFFFFFFFFFF7FFFFFFFFFFFFF76B
:104D7000FFFFFFFFFFFFE3FFFFFFFFFFFFC0FFFF9E
:104D8000FFFFFFFE0007FFFFFFFFFFFFFFFFFFFF2B
:104D9000FFFFFFFFFFFFFFFFFFFFFFFFFFFFFFFF23
:104DA000FFFFFFFFFFFFFFFFFFFFFFFFFFFFFFFF13
:104DB000FFFFFFFFFFFFFFFFFFFFFFFFFFFFFFFF03
:104DC000FFFFFFC0000003FFFFFFF8007FFFFFFFB2
:104DD000FFFE01FFFFFFFFFFFE01FFFFFFFFFFFFE1
:104DE00003FFFFFFFFFFFF03FFFFFFFFFFFF03FFC7
:104DF000FFFFFFFFFF03FFFFFFFFFFFF03FFFFFFBB
:104E0000FFFFFF03FFFFFFFFFFFF03FFFFFFFFFFAA
:104E1000FF03FFFFFFFFFFFF03FFFFFFFFFFFF0396
:104E2000FFFFFFFFFFFF03FFFFFFFFFFFF03FFFF8A
:104E3000FFFFFFFF03FFFFFFFFFFFF03FFFFFFFF7A
:104E4000FFFF03FFFFFFFFFFFF03FFFFFFFFFFFF6A
:104E500003FFFFFFFFFFFF03FFFFFFFFFFFF03FF56
:104E6000FFFFFFFFFF03FFFFFFFFFFFF03FFFFFF4A
:104E7000FFFFFF03FFFFFFFFFFFF03FFFFFFFFFF3A
:104E8000FF03FFFFFFFFFFFF03FFFFFFFFFFFF0326
:104E9000FFFFFFFFFFFF03FFFFFFFFFFFF03FFFF1A
:104EA000FFFFFFFF03FFFFFFFFFFFF03FFFFFFFF0A
:104EB000FFFF03FFFFFFFFFFFF03FFFFFFFFFFFFFA
:104EC00003FFFFFFFFFFFF03FFFFFFFFFFFF03FFE6
:104ED000FFFFFFFFFF03FFFFFFFFFFFF03FFFFFFDA
:104EE000FFFFFF03FFFFFFFFFFFF03FFFFFFFFFFCA
:104EF000FF03FFFFFFFFFFFE01FFFFFFFFFFFE01BC
:104F0000FFFFFFFFFFF8007FFFFFFFFFC000000370
:104F1000FFFFFFFFFFFFFFFFFFFFFFFFFFFFFFFFA1
:104F2000FFFFFFFFFFFFFFFFFFFFFFFFFFFFFFFF91
:104F3000FFFFFFFFFFFFFFFFFFFFFBFFFFFFFFFF85
:104F4000FFFBFFFFFFFFFFFFFBFFFFFFFFC00FFBAC
:104F5000FFFFFFFFFFF3FBFFFFFFFFFFFDF3FFFF7F
:104F6000FFFFFFFEF3FFFFFFFFFFFF73FFFFFFFFEA
:104F7000FFFFA3FFFFFFFFFFFFC3FFFFFFFFFFFFD9
:104F8000E3FFFFFFFFFFFFE3FFFFFFFFFFFFF3FF75
:104F9000FFFFFFFFFFF3FFFFFFFFFFFFF3FFFFFF39
:104FA000FFFFFFFBFFFFFFFFFFFFFBFFFFFFFFFF19
:104FB000FFFBFFFFFFFFFFFFFBFFFFFFFFFFFFFB0D
:104FC000FFFFFFFFFFFFFFFFFFFFFFFFFFFFFFFFF1
:104FD000FFFFFFFFFFFFFFFFFFFFFFFFFFFFFFFFE1
:104FE000FFFFFFFFFFFFFFFFFFFFFFFFFFFFFFFFD1
:104FF000FFFFFFFFFFFFFFFFFFFFFFFFFFFFFFFFC1
:10500000FFFFFFFFFFFFFFFFFFFFFFFFFFFFFFFFB0
:10501000FFFFFFFFFFFFFFFFFFFFFFFFFFFFFFFFA0
:10502000FFFFFFFFFFFFFFFFFFFFFFFFFFFFFFFF90
:10503000FFFFFFFFFFFFFFFFFFFFFFFFFFFFFFFF80
:10504000FFFFFFFFFFFFFFFFFFFFFFFBFFFFFFFF74
:10505000FFFFF3FFFFFFFFFFFFF7FFFFFFFFFFFF74
:10506000E7FFFFFFFFFFFFEFFFFFFFFFFFFFDFFF98
:10507000FFFFFFFFFFBFFFFFFFFFFFFF7FFFFFFF00
:10508000FFFFFEFFFFFFFFFFFFF9FFFFFFFFFFFF37
:10509000E3FFFFFFFFFFC00FFFFFFFFFFFFFFFFF6B
:1050A000FFFFFFFFFFFFFFFFFFFFFFFFFFFFFFFF10
:1050B000FFFFFFFFFFFFFFFFFFFFFFFFFFFFFFFF00
:1050C000FFFFFFFFFFFFFFFFFFFFFFFFFFFFFFFFF0
:1050D000FFFFFFFFFFFFFFFFFFFFFFFFFF87FFFF58
:1050E000FFFFFFFFE0FFFFFFFFFFFFF87FFFFFFF76
:1050F000FFFFFC3FFFFFFFFFFFFC1FFFFFFFFFFF66
:10510000FE0FFFFFFFFFFFFE07FFFFFFFFFFFF0791
:10511000FFFFFFFFFFFF83FFFFFFFFFFFF83FFFF97
:10512000FFFFFFFF81FFFFFFFFFFFFC1FFFFFFFF4B
:10513000FFFFC1FFFFFFFFFFFFC0FFFFFFFFFFFFFC
:10514000C0FFFFFFFFFFFFE0FFFFFFFFFFFFE07F6C
:10515000FFFFFFFFFFE07FFFFFFFFFFFE07FFFFF9D
:10516000FFFFFFE07FFFFFFFFFFFE07FFFFFFFFF8D
:10517000FFE07FFFFFFFFFFFE07FFFFFFFFFFFE09C
:105180007FFFFFFFFFFFE07FFFFFFFFFFFE07FFFED
:10519000FFFFFFFFE07FFFFFFFFFFFE07FFFFFFF5D
:1051A000FFFFE07FFFFFFFFFFFE07FFFFFFFFFFF4D
:1051B000E0FFFFFFFFFFFFC0FFFFFFFFFFFFC0FF9C
:1051C000FFFFFFFFFFC1FFFFFFFFFFFFC1FFFFFF6B
:1051D000FFFFFF81FFFFFFFFFFFF83FFFFFFFFFFD9
:1051E000FF83FFFFFFFFFFFF07FFFFFFFFFFFE073C
:1051F000FFFFFFFFFFFE0FFFFFFFFFFFFC1FFFFF93
:10520000FFFFFFF83FFFFFFFFFFFF87FFFFFFFFFFC
:10521000FFE0FFFFFFFFFFFF87FFFFFFFFFFFFFF35
:10522000FFFFFFFFFFFFFFFFFFFFFFFFFFFFFFFF8E
:10523000FFFFFFFFFFFFFFFFFFFFFFFFFFFF00007C
:10524000000000000000000000000000000000005E
:10525000000000000000000000000000001000003E
:1052600000000000100000000000003800000000F6
:1052700000003800000000000038000000000000BE
:105280003C0000000000003C0000000000003C006A
:1052900000000000003E0000000000003E00000092
:1052A0000000003E0000000000003F000000000081
:1052B000001F0000000000001F0000000000001F91
:1052C0008000000000000F8000000000000F800040
:1052D000000000000FC0000000000007C000000038
:1052E000000007C0000000000007E0000000000010
:1052F00003E0000000000003E0000000000003F0F5
:10530000000000000001F0000000000001F00000BB
:1053100000000001F8000000000000F8000000009C
:105320000000F8000000000000FC00000000000089
:105330007C0000000000007C0000000000007E00F7
:1053400000000000003E0000000000003E000000E1
:105350000000003F0000000000001F0000000000EF
:10536000001F0000000000001F8000000000000F70
:105370008000000000000F8000000000000FC0004F
:105380000000000007C0000000000007C00000008F
:10539000000007E0000000000007F000000000002F
:1053A0001FF80000000000FFFF00000000000000E8
:1053B00000000000000000000000000000000000ED
:1053C00000000000000000000000000000000000DD
:1053D00000000000000000000000000000000000CD
:1053E0000000000000000200000000000003C000F8
:1053F0000000000000F00000000000007800000045
:105400000000003C0000000000003E000000000022
:10541000001F0000000000001F0000000000001F2F
:105420008000000000001F8000000000001F8000BE
:10543000000000001F8000000000001F800000002E
:1054400000001F8000000000001F8000000000001E
:105450001F0000000000001F0000000000003E00D0
:1054600000000000003E0000000000007C00000082
:10547000000000F8000000000003E000000003FF4F
:10548000FF0000000000000780000000000001F0A5
:10549000000000000000780000000000007C000018
:1054A000000000003E0000000000003E0000000080
:1054B00000001F0000000000001F000000000000AE
:1054C0001F8000000000001F8000000000001F80FF
:1054D00000000000001F8000000000001F8000008E
:1054E0000000001F8000000000001F80000000007E
:1054F000001F8000000000001F8000000000001F4F
:105500000000000000001F0000000000003E00003E
:10551000000000003C0000000000007800000000D7
:105520000000F0000000000003C0000000000002C6
:10553000000000000000000000000000000000006B
:10554000000000000000000000000000000000005B
:10555000000000000000000000000000000000004B
:10556000000000000000000000000000000000003B
:1055700000000001C0000000000007000000000063
:10558000001E0000000000003C0000000000007C45
:10559000000000000000F8000000000000F0000023
:1055A00000000001F0000000000001E00000000029
:1055B0000003E0000000000003E00000000000071E
:1055C000C0000000000007C000000000000FC00085
:1055D000000000000FC000000000000F800000006D
:1055E00000001F8000000000001F8000000000007D
:1055F0001F8000000000001F8000000000001F80CE
:1056000000000000001F8000000000001F8000005C
:105610000000001F8000000000001F80000000004C
:10562000001F8000000000001F8000000000001F1D
:105630008000000000001F8000000000001F8000AC
:10564000000000000FC000000000000FC0000000BC
:1056500000000FC0000000000007C00000000000B4
:1056600007E0000000000003E0000000000003E08D
:10567000000000000001E0000000000001F0000058
:1056800000000000F8000000000000F8000000002A
:1056900000007C0000000000003E00000000000050
:1056A0001E0000000000000780000000000001E074
:1056B00000000000000000000000000000000000EA
:1056C00000000000000000000000000000000000DA
:1056D00000000000000000000000000000000000CA
:1056E00000000000000000000000000000000000BA
:1056F0000000003FFFFFC000000007FF8000000027
:105700000001FE000000000001FE0000000000009B
:10571000FC000000000000FC000000000000FC0095
:105720000000000000FC000000000000FC00000081
:10573000000000FC000000000000FC000000000071
:1057400000FC000000000000FC000000000000FC65
:10575000000000000000FC000000000000FC000051
:1057600000000000FC000000000000FC0000000041
:105770000000FC000000000000FC00000000000031
:10578000FC000000000000FC000000000000FC0025
:105790000000000000FC000000000000FC00000011
:1057A000000000FC000000000000FC000000000001
:1057B00000FC000000000000FC000000000000FCF5
:1057C000000000000000FC000000000000FC0000E1
:1057D00000000000FC000000000000FC00000000D1
:1057E0000000FC000000000000FC000000000000C1
:1057F000FC000000000000FC000000000000FC00B5
:105800000000000000FC000000000000FC000000A0
:10581000000000FC000000000000FC000000000090
:1058200000FC000000000001FE000000000001FE7E
:10583000000000000007FF80000000003FFFFFC0E5
:105840000000000000000000000000000000000058
:105850000000000000000000000000000000FFFF4A
:10586000FFFFFFFFFFFFFFFFFFFFFFFFFFFFFFFF48
:10587000FFFFFFFFFFFFFFFFFFFFFFFFFFFFFFFF38
:10588000FFFFFFFFFFFFFFFFFFFFFFFFFFFFFFFF28
:10589000FFFFFFFFFFFFFFFFFFFFFFFFFFFFFFFF18
:105BC000FFFFFFFFFFFFFFFFFFFFFFFE7FFFFFFF66
:105BD000FFFFFFFFFFFFFFFFFFFFFFFFFFFFFFFFD5
:105BE000FFFFFFFFFFFFFFFFFFFFFFFFFFFFFFFFC5
:105BF000FFFFFFFFFFFFFFFFFFFFFFFFFFFE3FFF76
:105C0000FFFFFFFFFFFFFFFFFFFFFFFFFFFFFFFFA4
:105C1000FFFFFFFFFFFFFFFFFFFFFFFFFFFFFFFF94
:105C2000FFFFFFFFFFFFFFFFFFFFFFFFFFFFFFFE85
:105C30001FFFFFFFFFFFFFFFFFFFFFFFFFFFFFFF54
:105C4000FFFFFFFFFFFFFFFFFFFFFFFFFFFFFFFF64
:105C5000FFFFFFFFFFFFFFFFFFFFFFFFFFFFFFFF54
:105C6000FFFF1FFFFFFFFFFFFFFFFFFFFFFFFFFF24
:105C7000FFFFFFFFFFFFFFFFFFFFFFFFFFFFFFFF34
:105C8000FFFFFFFFFFFFFFFFFFFFFFFFFFFFFFFF24
:105C9000FFFFFFFF87FFFFFFFFFFFFFFFFFFFFFF8C
:105CA000FFFFFFFFFFFFFFFFFFFFFFFFFFFFFFFF04
:105CB000FFFFFFFFFFFFFFFFFFFFFFFFFFFFFFFFF4
:105CC000FFFFFFFFFFFFC3FFFFFFFFFFFFFFFFFF20
:105CD000FFFFFFFFFFFFFFFFFFFFFFFFFFFFFFFFD4
:105CE000FFFFFFFFFFFFFFFFFFFFFFFFFFFFFFFFC4
:105CF000FFFFFFFFFFFFFFFFF1FFFFFFFFFFFFFFC2
:105D0000FFFFFFFFFFFFFFFFFFFFFFFFFFFFFFFFA3
:105D1000FFFFFFFFFFFFFFFFFFFFFFFFFFFFFFFF93
:105D2000FFFFFFFFFFFFFFFFFFFFC8FFFFFFFFFFBA
:105D3000FFFFFFFFFFFFFFFFFFFFFFFFFFFFFFFF73
:105D4000FFFFFFFFFFFFFFFFFFFFFFFFFFFFFFFF63
:105D5000FFFFFFFFFFFFFFFFFFFFFFFF0C7FFFFFC6
:105D6000FFFFFFFFFFFFFFFFFFFFFFFFFFFFFFFF43
:105D7000FFFFFFFFFFFFFFFFFFFFFFFFFFFFFFFF33
:105D8000FFFFFFFFFFFFFFFFFFFFFFFFFFFFFE1F04
:105D9000FFFFFFFFFFFFFFFFFFFFFFFFFFFFFFFF13
:105DA000FFFFFFFFFFFFFFFFFFFFFFFFFFFFFFFF03
:105DB000FFFFFFFFFFFFFFFFFFFFFFFFFFFFFFFFF3
:105DC000FF1FFFFFFFFCFFFFFFFFFFFFFFFFFFFFC6
:105DD000FFFFFFFFFFFFFFFFFFFFFFFFFFFFFFFFD3
:105DE000FFFFFFFFFFFFFFFFFFFFFFFFFFFFFFFFC3
:105DF000FFFFFF8FFFFFFFFCFFFFFFFFFFFFFFFF26
